:020000040800F2
:10000000785600209D020008315C0008394700083E
:100010002D5C00083F040008996D000800000000F6
:10002000000000000000000000000000DD010008EA
:10003000CB0500080000000039020008C16000087C
:10004000B7020008B7020008B7020008B7020008AC
:10005000B7020008B7020008AD170008B702000891
:10006000B7170008C1170008B7020008B702000858
:10007000B7020008B7020008B7020008B70200087C
:10008000B7020008B7020008B7020008B70200086C
:10009000B7020008B7020008B7020008B70200085C
:1000A000B7020008A5610008B7020008B7020008FF
:1000B000B5610008C5610008B70200084D47000897
:1000C0003D470008B7020008B7020008B702000861
:1000D000115F0008116C0008B70200082D6C0008C1
:1000E000B7020008B7020008B7020008D56100088F
:1000F00005620008F5610008E5610008B702000824
:1001000000000000B7020008B7020008B7020008AC
:100110000000000000000000B7020008B70200085D
:10012000B7020008B7020008A1040008B7020008DF
:10013000B7020008B7020008B7020008B7020008BB
:10014000B7020008B7020008B7020008B7020008AB
:10015000B7020008B7020008B1040008B70200089F
:10016000B7020008B702000800000000000000000D
:10017000000000000000000000000000000000007F
:10018000B7020008B70200080000000000000000ED
:10019000B7020008B70200080000000000000000DD
:1001A000000000000000000000000000000000004F
:1001B000B70200080000000000000000B7020008BD
:1001C000B7020008DFF810D000F0FCF80048004744
:1001D000E9740008AFF30080785600202C4B1968B2
:1001E0000868B0E8F04F80F30988BFF36F8F4FF0D5
:1001F000000080F311887047000000000848006884
:10020000006880F308884FF0000080F3148862B61D
:1002100061B6BFF34F8FBFF36F8F00DF00BF00BF2A
:1002200008ED00E0DFF80C00016841F470010160A6
:10023000704700BF88ED00E0EFF30980BFF36F8FD8
:10024000134B1A681EF0100F08BF20ED108A20E92A
:10025000F04F106009B44FF0500080F31188BFF3E5
:100260004F8FBFF36F8F08F075FE4FF0000080F3E3
:10027000118809BC19680868B0E8F04F1EF0100F2B
:1002800008BFB0EC108A80F30988BFF36F8F704706
:10029000B4000020EFF30580704700000648804757
:1002A00006480047FEE7FEE7FEE7FEE7FEE7FEE75B
:1002B000FEE7FEE7FEE7FEE791610008C5010008E2
:1002C0002DE9F05F0546002092469B46884606468B
:1002D000814640241BE0284641464746224600F01E
:1002E00061F853465A46C01A914110D31146184638
:1002F000224600F048F82D1A67EB01084F462246C7
:100300000120002100F03FF817EB00094E41201EAC
:10031000A4F10104DFDC484631462A464346BDE8E5
:10032000F09F40EA01039B0703D009E008C9121FB0
:1003300008C0042AFAD203E011F8013B00F8013B9F
:10034000521EF9D27047D2B201E000F8012B491ECB
:10035000FBD270470022F6E710B513460A46044662
:100360001946FFF7F0FF204610BD10B5002200E04F
:10037000521C835C8C5CA34201D1002BF8D1D8B213
:10038000E1B2401A10BD202A04DB203A00FA02F143
:10039000002070479140C2F1200320FA03F3194373
:1003A00090407047202A04DB203A21FA02F0002115
:1003B000704721FA02F3D040C2F120029140084375
:1003C00019467047064C074D06E0E06840F001030F
:1003D00094E8070098471034AC42F6D3FFF7F6FED6
:1003E000CCA80008ECA8000870B58C1810F8015BC8
:1003F00015F0070301D110F8013B2A1106D110F8BE
:10040000012B03E010F8016B01F8016B5B1EF9D1C1
:100410002B0705D40023521E0DD401F8013BFAE747
:1004200010F8013BCB1A921C03E013F8015B01F8B2
:10043000015B521EF9D5A142D8D3002070BD00BF88
:10044000FEE7000010B502460B46FF20104C20705E
:10045000104C207010E012F8010B0D4C247880EA4B
:1004600004010D48405C0B4C24786040084C20701F
:100470000A48405C074C2070181EA3F10104A3B287
:10048000E9D104480078024C247840EA042010BDE9
:1004900076010020770100207801002078020020FA
:1004A00010B5024801F0FEFB10BD00006C060020F4
:1004B00010B5024801F0F6FB10BD0000CC0600208C
:1004C0000146087810381823B0FBF3F20848805C26
:1004D000C865032A05D908686FF30900001D8865FF
:1004E00003E008686FF309008865886D70470000B5
:1004F00046A70008014600208A6A8B69CBB932B151
:10050000012A0DD0022A03D0032A10D10EE000BF29
:10051000CB6A03F08073B3F1807F00D1012007E044
:10052000CB6AB3F1C07F00D1012001E000E000BF41
:1005300034E08B69B3F5005F1AD132B1012A07D0DC
:10054000022A03D0032A11D10AE000BF01200EE0E5
:10055000CB6A03F08073B3F1807F00D1012006E005
:10056000CB6AB3F1C07F00D1012000E000BF15E0ED
:1005700032B1012A05D0022A04D0032A0CD103E0AB
:1005800000BF00BF012008E0CB6A03F08073B3F125
:10059000807F00D1012000E000BF00BF704730B570
:1005A0000468246824F4802405682C60046863606F
:1005B0008468402C04D10468A2600468E16003E010
:1005C0000468A1600468E26030BD70478EB0002707
:1005D0000025002400BF012007F02AF83223002262
:1005E00005A9FE48006807F079F8C7B2002FF2D1DC
:1005F000FB480078022804DA142105A8FFF7AAFEB8
:10060000E9E7F74800780228E5D10020F5490870AD
:100610009DF814008DF828009DF815008DF829002C
:1006200000208DF82A008DF82B009DF81A008DF817
:100630002E009DF81B008DF82F009DF81B0005284B
:1006400070D007DC01280AD002286CD0032841F0C2
:10065000998033E1062867D01028F8D1CDE39DF8C2
:100660001C0020287DD19DF81D0005284AD006DCFD
:10067000052877D2DFE800F06529434445000628C5
:100680007CD0092870D00A2802D064286AD100E002
:10069000A6E000208DF82C0005208DF82D0001200B
:1006A0008DF83000D0480078012802D18DF8310053
:1006B00005E0CD48007810B900208DF831000A22FD
:1006C0000AA9012007F0F0FF8AE000208DF82C0035
:1006D00005208DF82D0001208DF83000C3480078EA
:1006E000012803D100208DF8310002E001208DF8AF
:1006F00031000A220AA9012007F0D6FF70E06FE05E
:100700006EE06DE000208DF82C0005208DF82D00A6
:1007100001208DF83000B4480078012805D18DF80B
:10072000310008E095E362E0FEE3AF48007810B9DD
:1007300000208DF831000A220AA9012007F0B4FF39
:100740004EE000208DF82C0005208DF82D000120B2
:100750008DF83000A6480078012806D18DF83100C8
:1007600006E03EE03BE009E018E000208DF83100B3
:100770000A220AA9012007F097FF31E000208DF836
:100780002C0005208DF82D0001208DF830008DF80B
:1007900031000A220AA907F087FF21E000208DF826
:1007A0002C0006208DF82D0001208DF8300001026C
:1007B000904801F049FD012802D18DF8310008E090
:1007C0004FF480718B4801F03FFD10B900208DF887
:1007D00031000A220AA9012007F066FF00E000BFED
:1007E00000BF00200A900B900C900D90FCE30020BD
:1007F0008DF82C0004208DF82D0001208DF830009C
:100800009DF81C00C8B99DF81D00012815D10121D3
:10081000784801F019FD38B901208DF831000A221D
:100820000AA907F041FF43E000208DF831000A22B9
:100830000AA9012007F038FF3AE09DF81C00C8B96A
:100840009DF81D00032815D108216A4801F0FCFC21
:1008500038B901208DF831000A220AA907F024FFD7
:1008600026E000208DF831000A220AA9012007F0B5
:100870001BFF1DE09DF81C00C8B99DF81D00042851
:1008800015D104215B4801F0DFFC38B901208DF857
:1008900031000A220AA907F007FF09E000208DF8BD
:1008A00031000A220AA9012007F0FEFE00E000BF85
:1008B00000200A900B900C900D9097E79DF81F0078
:1008C0009DF81E1040EA01204FF6FF7101EA400436
:1008D00000208DF82C00E01CC0B28DF82D009DF892
:1008E0001C00012878D1022C77D19DF81D004A28E0
:1008F0000DD1E0B28DF8300000208DF831008DF878
:1009000032000B220AA9012007F0CEFE9BE29DF8DF
:100910001D004E280DD1E0B28DF8300000208DF87A
:1009200031008DF832000B220AA9012007F0BCFE2D
:1009300089E29DF81D0088B9E0B28DF830002E489C
:100940000088000A8DF831002B4800788DF83200BD
:100950000B220AA9012007F0A7FE74E29DF81D00F2
:10096000302811D1E0B28DF8300024480088000A08
:100970008DF83100214800788DF832000B220AA949
:10098000012007F091FE5EE29DF81D0032280DD196
:10099000E0B28DF8300000208DF831008DF8320083
:1009A0000B220AA9012007F07FFE4CE29DF81D00F2
:1009B0007728ABD1E0B28DF830000C4800780128E0
:1009C0001ED100208DF8310001208DF832000B225D
:1009D0000AA907F069FE36E262E01FE094000020F9
:1009E0004600002056000020470000204B00002059
:1009F0004D000020000802401C0000205200002092
:100A0000FE480078002893D18DF831008DF832002F
:100A10000B220AA9012007F047FE14E2042C87D11B
:100A20009DF81D002C281BD1E0B28DF83000F44851
:100A30000068000E8DF83300F1480068000C8DF856
:100A40003400EF480088000A8DF83100EC48007847
:100A50008DF832000D220AA9012007F025FEF2E1EF
:100A60009DF81D002E288ED1E0B28DF83000E548AB
:100A70000068000E8DF83300E2480068000C8DF825
:100A80003400E0480088000A8DF83100DD48007825
:100A90008DF832000D220AA9012007F005FED2E1EF
:100AA0009DF81C00002896D1022C23D19DF81D0032
:100AB00020280DD1E0B28DF8300000208DF83100F3
:100AC0008DF832000B220AA9012007F0EDFDBAE1F2
:100AD0009DF81D009628A0D1E0B28DF830000020CE
:100AE0008DF831008DF832000B220AA9012007F0A1
:100AF000DBFDA8E1042C90D19DF81D0064281BD1DA
:100B0000E0B28DF83000C0480068000E8DF8330068
:100B1000BD480068000C8DF83400BB480088000A0E
:100B20008DF83100B84800788DF832000D220AA9FE
:100B3000012007F0B9FD86E19DF81D00682814D159
:100B4000E0B28DF83000280E8DF83300280C8DF8B7
:100B50003400280A8DF83100E8B28DF832000D22F9
:100B60000AA9012007F0A0FD6DE19DF81D0078287D
:100B70001BD1E0B28DF83000A4480068000E8DF85B
:100B80003300A2480068000C8DF834009F480088AC
:100B9000000A8DF831009D4800788DF832000D2252
:100BA0000AA9012007F080FD4DE19DF81D007A287B
:100BB00011D1E0B28DF8300000208DF833008DF8AF
:100BC00034008DF831008DF832000D220AA9012081
:100BD00007F06AFD37E19DF81D007C281BD1E0B2CB
:100BE0008DF830008A480068000E8DF83300884880
:100BF0000068000C8DF8340085480088000A8DF8E4
:100C00003100834800788DF832000D220AA90120B6
:100C100007F04AFD17E19DF81D007E2811D1E0B2D2
:100C20008DF8300000208DF831008DF832008DF8FD
:100C300033008DF834000D220AA9012007F034FD9D
:100C400001E19DF81D0080281BD1E0B28DF8300035
:100C500070480068000E8DF833006E480068000C84
:100C60008DF834006B480088000A8DF8310069481F
:100C700000788DF832000D220AA9012007F014FD3A
:100C8000E1E09DF81D0087287ED10821624801F02F
:100C9000DBFA01281ED1614890ED000ADFED600A01
:100CA00020EE200ADFED5E0AB4EEE00AF1EE10FA63
:100CB00010D2E0B28DF8300000208DF833008DF8AE
:100CC00034008DF831008DF832000D220AA9012080
:100CD00007F0EAFC0821504801F0B6FA01286CD16F
:100CE0004E4890ED000ADFED4E0A60EE200A4848BB
:100CF00090ED000AB8EE400AF4EEC00AF1EE10FAE8
:100D000011D890ED000AB8EE400A4448D0ED000A30
:100D10009FED431A00EEC10ADFED410AB4EEE00A8E
:100D2000F1EE10FA22D33D4890ED000ADFED3C0AC7
:100D300060EE200A364890ED000AB8EE400AF4EE64
:100D4000C00AF1EE10FA38DB90ED000AB8EE400A66
:100D50003248D0ED000A9FED321A10EE810ADFED25
:100D6000300AB4EEE00AF1EE10FA26D2E0B28DF8C5
:100D70003000274800680A21B0FBF1F0000E8DF822
:100D800033002348006800E05DE0B0FBF1F0000CA8
:100D90008DF834001E480068B0FBF1F0000A8DF8B1
:100DA00031001B480068B0FBF1F0C0B28DF8320092
:100DB0000D220AA9012007F077FC0026002019491E
:100DC00008700120184908708DF8000003208DF884
:100DD000010000208DF8020004208DF8030000209F
:100DE0008DF8040002208DF80500002301226946D9
:100DF0000E48006806F000FD1EE091E34B00002065
:100E000038000020340000202000002028000020AE
:100E10002C000020300000200008024018000020B4
:100E200000007A444A00002049000020A000002071
:100E3000761C0A2006F0FCFBFE480078012801D150
:100E4000322EF5DB00BF00200A900B900C900D9025
:100E5000CCE400208DF82C0006208DF82D009DF8A4
:100E60001C008DF830009DF81D008DF831009DF8B4
:100E70001C0020287ED19DF81D0015287BD2DFE8BC
:100E800000F0FC0BB4FBFAF9F8F77AF67A7A7A7A82
:100E90007AF57A7A7A7AF4009DF81E00FF287AD1E2
:100EA0008DF8320000208DF833000C220AA90120B1
:100EB00007F0FAFB0020E0490870E04890ED000AD6
:100EC000B5EEC00AF1EE10FA2FD8DD4800684FF4F5
:100ED0007A71B0FBF1F000EB400040F2FF1101EA43
:100EE00040008001D749086001208DF800000620ED
:100EF0008DF8010000208DF80200C9208DF8030054
:100F000008460088000A8DF80400084600788DF82D
:100F10000500002301226946CB48006806F06CFCFE
:100F20000120CA4908705EE09FE2C54800684FF49E
:100F30007A71B0FBF1F000EB400040F2FF1101EAE2
:100F400040004FF4004141EA8010BE490860012092
:100F50008DF8000006208DF8010000208DF80200B9
:100F6000C9208DF8030008460088000A8DF80400A7
:100F7000084602E073E270E20DE000788DF80500AB
:100F8000002301226946B048006806F035FC0120C4
:100F9000AE49087027E09DF81E0020BB00208DF8A8
:100FA00032008DF833000C220AA9012007F07CFBE7
:100FB00001208DF8000006208DF8010000208DF83A
:100FC0000200C8208DF8030000208DF804008DF881
:100FD00005000023012269469B48006806F00CFCCE
:100FE00000209A49087039E23EE29DF81E00FF2871
:100FF00026D18DF8320000208DF833000C220AA98A
:10100000012007F051FB01208DF8000006208DF82B
:10101000010000208DF80200C8208DF80300002098
:101020008DF8040001208DF8050000230122694697
:101030008548006806F0E0FB0120844908702EE036
:1010400000208DF832008DF833000C220AA901200F
:1010500007F02AFB01208DF8000006208DF8010022
:1010600000208DF80200C82008E041E1E0E1BFE186
:10107000A9E18BE1B5E063E012E06CE18DF80300DB
:1010800000208DF804008DF8050000230122694638
:101090006D48006806F0B0FB00206C490870DDE187
:1010A0009DF81E00FF2825D18DF8320000208DF814
:1010B00033000C220AA9012007F0F6FA01208DF86E
:1010C000000006208DF8010000208DF80200C820E5
:1010D0008DF8030001208DF804008DF80500002331
:1010E000012269465848006806F086FB01205749EE
:1010F000087024E000208DF832008DF833000C22B7
:101100000AA9012007F0D0FA01208DF8000006207E
:101110008DF8010000208DF80200C8208DF8030032
:1011200000208DF804008DF8050000230122694697
:101130004548006806F060FB0020444908708DE1D6
:101140009DF81E00FF2826D18DF8320000208DF872
:1011500033000C220AA9012007F0A6FA01208DF81D
:10116000000006208DF8010000208DF80200C82044
:101170008DF8030000208DF8040001208DF8050093
:101180000023012269463048006806F035FB012043
:101190002E49087024E000208DF832008DF83300CD
:1011A0000C220AA9012007F07FFA01208DF8000027
:1011B00006208DF8010000208DF80200C8208DF86F
:1011C000030000208DF804008DF8050000230122A3
:1011D00069461D48006806F00FFB00201B49087097
:1011E0003CE19DF81E00FF285CD18DF83200002004
:1011F0008DF833000C220AA9012007F055FA144893
:101200000078012873D18DF8000010208DF80100BE
:1012100000208DF80200D0208DF8030000208DF80A
:10122000040002208DF8050004208DF8060009480E
:10123000006811E0490000204B0000201800002049
:101240002000002024000020A000002047000020F3
:101250004C0000202C0000200A21B0FBF1F0000A15
:101260008DF80700FB480068B0FBF1F0C0B28DF8C4
:101270000800F8480068B0FBF1F0000E8DF8090096
:10128000F4480068B0FBF1F0000C8DF80A00002370
:1012900001226946F048006806F0AEFA0120EF49E5
:1012A000087024E000208DF832008DF833000C2205
:1012B0000AA9012007F0F8F901208DF800000620A6
:1012C0008DF8010000208DF80200C8208DF8030081
:1012D00000208DF804008DF80500002301226946E6
:1012E000DD48006806F088FA0020DC490870B5E0A7
:1012F0009DF81E00FF2823D18DF8320000208DF8C4
:101300003300D648007801281FD18DF80000062050
:101310008DF8010000208DF80200C8208DF8030030
:1013200000208DF804008DF8050000230122694695
:10133000C948006806F060FA0020C849087004E057
:1013400000208DF832008DF833000C220AA901200C
:1013500007F0AAF982E09DF81E00FF2809D10120BC
:10136000BF490870FF208DF8320000208DF833004F
:1013700006E00020BA4908708DF832008DF833007D
:101380000C220AA9012007F08FF967E09DF81E00E2
:10139000FF280AD18DF8320000208DF833000C228E
:1013A0000AA9012007F080F90CE09DF81E0048B959
:1013B00000208DF832008DF833000C220AA901209C
:1013C00007F072F94AE09DF81E00FF2805D18DF85C
:1013D000320000208DF8330004E000208DF8320048
:1013E0008DF833000C220AA9012007F05DF935E0E1
:1013F0009DF81E00FF280AD18DF8320000208DF8DC
:10140000330001221102974800F030FF0AE000206B
:101410008DF832008DF8330000224FF4807191482E
:1014200000F024FF0C220AA9012007F03DF915E085
:101430009DF81E00FF2805D18DF8320000208DF8A0
:10144000330004E000208DF832008DF833000C22C8
:101450000AA9012007F028F900E000BF00BF002022
:101460000A900B900C900D908DE100208DF82C00CF
:1014700006208DF82D009DF81C008DF830009DF899
:101480001D008DF831009DF81E008DF832009DF88A
:101490001F008DF833009DF81C0001283AD19DF8FB
:1014A0001D004A2805D10C220AA9012007F0FCF8EA
:1014B00030E09DF81D004E2805D10C220AA901201C
:1014C00007F0F2F826E09DF81D0090B99DF81E0087
:1014D00010B99DF81F0018B101206349087002E09F
:1014E0000020614908700C220AA9012007F0DCF8ED
:1014F00010E09DF81D0030280CD19DF81F009DF8CC
:101500001E1040EA0120594908800C220AA9012036
:1015100007F0CAF800200A900B900C900D9032E171
:1015200000208DF82C0006208DF82D009DF81C0061
:101530008DF830009DF81D008DF831009DF81E00DB
:101540008DF832009DF81F008DF833009DF81C00C7
:1015500088BB9DF81D00642815D19DF822009DF8D8
:10156000211040EA01209DF8231040EA01609DF817
:10157000241040EA01403E4908600C220AA90120DB
:1015800007F092F8F8E09DF81D00682814D19DF846
:1015900022009DF8211040EA01209DF8231040EA26
:1015A00001609DF8241040EA01450C220AA901209F
:1015B00007F07AF8E0E0A0E09DF81D0078283ED121
:1015C0009DF822009DF8211040EA01209DF823108B
:1015D00040EA01609DF8241040EA01402549086076
:1015E0000C220AA9012007F05FF801208DF8000005
:1015F00006208DF8010000208DF802009A208DF859
:1016000003001C4800684FF47A71B0FBF1F000EB66
:101610004000C0F3D7108DF8040016480068B0FBF6
:10162000F1F000EB40004006000E8DF805000023AD
:10163000012269460848006806F0DEF89CE09DF843
:101640001D007A2818D10C220AA9012007F02CF8D5
:1016500092E000002C000020A000002047000020A5
:101660004D000020000802404800002052000020E9
:1016700020000020280000209DF81D007C2818D1A3
:101680000120444908709DF822009DF8211040EA8D
:1016900001209DF8231040EA01609DF8241040EAE3
:1016A00001403D4908600C220AA9012006F0FCFF18
:1016B00062E09DF81D007E2805D10C220AA90120B8
:1016C00006F0F2FF58E09DF81D00802854D19DF8E7
:1016D00022009DF8211040EA01209DF8231040EAE5
:1016E00001609DF8241040EA01402C4908600C225A
:1016F0000AA9012006F0D8FF3EE09DF81C00012851
:101700003AD19DF81D002C281DD19DF822009DF88E
:10171000211040EA01209DF8231040EA01609DF865
:10172000241040EA01401E490860084690ED000A76
:10173000B8EE400A1B4880ED000A0C220AA90120DD
:1017400006F0B2FF18E09DF81D002E2814D19DF878
:1017500022009DF8211040EA01209DF8231040EA64
:1017600001609DF8241040EA01400F4908600C22F6
:101770000AA9012006F098FF00200A900B900C9017
:101780000D9000E000BF00BF142105A8FEF7E2FDA8
:10179000FEF721BF4C0000202C000020300000206C
:1017A00038000020400000203400002010B5012047
:1017B00000F05EFC10BD10B5042000F059FC10BD17
:1017C00010B5082000F054FC10BD000086B08AA1BE
:1017D00003C9CDE904018AA30FCB8DE80F0000BF38
:1017E000012005F025FF8A48007801287DD10020DE
:1017F000874908700821874800F026FD01281AD182
:1018000085480068B8B901208449087000208449DF
:1018100008809FED840A844880ED000A00208349F7
:1018200008608349087083480078012875D1022038
:101830008049087071E0784890ED000AF8EEC00A1F
:101840009FED7D1A80EE810AF2EE040A20EE200A56
:10185000754880ED000A90ED000ADFED780A20EE71
:10186000200ABDEEC00A714880ED000A7448007875
:10187000012852D10821674800F0E6FC01284CD12C
:10188000694890ED000ADFED6C0A60EE200A6D48B1
:1018900090ED000AB8EE400AF4EEC00AF1EE10FA3C
:1018A00011D890ED000AB8EE400A5F48D0ED000A6A
:1018B0009FED611A00EEC10ADFED5F0AB4EEE00AA7
:1018C000F1EE10FA24D3584890ED000ADFED5A0AE1
:1018D00060EE200A5B4890ED000AB8EE400AF4EE94
:1018E000C00AF1EE10FA18DB00E051E090ED000ABA
:1018F000B8EE400A4C48D0ED000A9FED4F1A10EEAA
:10190000810ADFED4D0AB4EEE00AF1EE10FA04D2DE
:1019100000204B490870464908704B480078012860
:101920001AD100204849087040480068000E8DF820
:101930000B003E480068000C8DF80C003B48008806
:10194000000A8DF80900394800788DF80A000D2248
:101950006946012006F0A8FE3C480078012817D10E
:10196000324800788DF8120030480088000A8DF85F
:1019700013002E480068000C8DF814002B480068F6
:10198000000E8DF81500062204A9022006F08CFE38
:101990002F48007801287FF423AF2E4890ED000AED
:1019A0002148D0ED000A9FED241A10EE810ABCEE0A
:1019B000C00A294880ED000A2848006800EB800032
:1019C00025490968B1EB400FFFF40AAF23480068CE
:1019D00000EB8000400000EE100AB8EE400A1D48FF
:1019E000D0ED000A30EE200A80ED000A00201849F0
:1019F000087019490860F3E6CFAE0000000000004F
:101A000019B200000007DB03040000000000000022
:101A10004A00002000080240580000204B0000202F
:101A20005400002000000000180000201C000020CE
:101A3000470000204600002000007A440000C84211
:101A40004C0000202C00002049000020480000200D
:101A50004E000020400000203C0000203400002008
:101A600072B600BFFEE7000008B505F09BF911490A
:101A7000002005F067FB01208DF800008DF80300C1
:101A800000208DF8020001208DF8010069460A202F
:101A900005F080FB00BF4FF4FB71012005F050FD05
:101AA00041F29411022005F04BFD322005F0C0FDFB
:101AB000F1E70000000000201CB53DA103C9CDE9FD
:101AC000000100BF012005F0B3FD3B48007800286D
:101AD00065D10821394800F0B7FB01282CD18DF8D9
:101AE000000006208DF8010000208DF80200C920BA
:101AF0008DF803008C208DF8040080208DF80500FF
:101B00003C208DF8060094208DF807000122110278
:101B10002B4800F0ABFB0A2308226946294802F053
:101B2000A1FD00224FF48071254800F09FFB4FF487
:101B30007A7005F07DFDC5E70821204800F084FBA0
:101B40000028BFD101208DF8000006208DF801008B
:101B500000208DF80200C8208DF8030000208DF8C9
:101B600004008DF8050008208DF8060034208DF85B
:101B7000070001221102124800F078FB0A23082214
:101B80006946104802F06EFD00224FF480710C4847
:101B900000F06CFB4FF47A7005F04AFD92E70648BE
:101BA000007802288ED1002007F0BEF88AE70000F6
:101BB000010600C98C803C944600002000080240C9
:101BC00000000240E405002070B50446A56D00F059
:101BD00053FB064694F83500022808D08020606543
:101BE00000BF002084F8340000BF012070BD2068D1
:101BF000006820F01600216808602068406920F025
:101C0000800021684861206C08B9A06C28B1206868
:101C1000006820F00800216808602068006820F053
:101C200001002168086010E000F026FB801B0528F9
:101C30000BD920206065032084F8350000BF002008
:101C400084F8340000BF0320D0E72068006800F06B
:101C500001000028E8D194F85C103F208840A8607B
:101C6000012084F8350000BF002084F8340000BF54
:101C700000BFBBE7014691F83500022803D0802061
:101C8000486501207047052081F835000868006824
:101C900020F001000A6810600020F3E7014691F887
:101CA00035007047F8B50446002000908C48006865
:101CB0004FF41651B0FBF1F7A56D2E6894F85C1047
:101CC00008208840304098B12068006800F0040087
:101CD00070B12068006820F004002168086094F862
:101CE0005C1008208840A860606D40F001006065CD
:101CF00094F85C1001208840304068B12068406949
:101D000000F0800040B194F85C1001208840A86089
:101D1000606D40F00200606594F85C10042088401B
:101D2000304068B12068006800F0020040B194F8CB
:101D30005C1004208840A860606D40F0040060657D
:101D400094F85C1010208840304078B32068006818
:101D500000F0080050B394F85C1010208840A86090
:101D60002068006800F4802080B12068006800F4DA
:101D7000002028B9206CC8B12046216C884715E0A6
:101D8000A06C98B12046A16C88470FE020680068DD
:101D900000F4807028B92068006820F008002168ED
:101DA0000860206C10B12046216C884794F85C10C4
:101DB000202088403040002865D02068006800F06E
:101DC000100000285FD094F85C1020208840A860A4
:101DD00094F83500052828D12068006820F0160006
:101DE000216808602068406920F08000216848610F
:101DF000206C08B9A06C28B12068006820F00800A9
:101E00002168086094F85C103F208840A860012099
:101E100084F8350000BF002084F8340000BF206D36
:101E200010B12046216D8847F8BD2068006800F495
:101E3000802080B12068006800F4002028B9606C20
:101E400010B12046616C88471DE0E06BD8B1204698
:101E5000E16B884717E02068006800F4807068B97B
:101E60002068006820F0100021680860012084F8D4
:101E7000350000BF002084F8340000BFE06B10B1D3
:101E80002046E16B8847606D38B3606D00F001005B
:101E9000F0B1052084F835002068006820F00100CA
:101EA0002168086000BF0098401C0090B84200D92B
:101EB00005E02068006800F001000028F3D100BFB1
:101EC000012084F8350000BF002084F8340000BFF2
:101ED000E06C10B12046E16C884700BFA4E7000029
:101EE000B00000202DE9F0410446002500F0C4F9BF
:101EF000074614B90120BDE8F081606A00B100BF57
:101F0000022084F8350000BF002084F8340000BFB0
:101F10002068006820F00100216808600AE000F0F5
:101F2000ABF9C01B052805D920206065032084F883
:101F30003500E0E72068006800F001000028EED1DD
:101F40002068056821480540D4E901010843E1689B
:101F500008432169084361690843A1690843E169AD
:101F60000843216A08430543606A042803D1D4E981
:101F70000B0108430543206805602068456925F08A
:101F80000705606A0543606A04280DD1A06A05430D
:101F9000E06A48B12046FEF7ADFA28B140206065FE
:101FA000012084F83500A6E7206845612046FEF749
:101FB00087FA064694F85C103F208840B060002005
:101FC0006065012084F83500002094E73F8010F020
:101FD0002DE9F04704460D4616461F464FF000080F
:101FE000D4F8589000BF94F83400012802D10220A0
:101FF000BDE8F087012084F8340000BF94F8350074
:10200000012825D1022084F83500002060653B4678
:10201000324629462046FEF7C2FA94F85C103F206B
:102020008840C9F808002068006840F01600216860
:102030000860206C28B12068006840F00800216822
:1020400008602068006840F001002168086006E030
:1020500000BF002084F8340000BF4FF00208404663
:10206000C6E7082802D0042800D000BF704700004F
:1020700010B5044604480068204020B102480460BE
:102080002046FFF7EEFF10BD143C0140F8B50346B3
:102090000A460025002400200021C2E0012606FA9D
:1020A00001F5166806EA0504AC4274D1167906F00B
:1020B0000306012E04D0167906F00306022E13D172
:1020C00098684F000326BE40B0434F00D668BE401C
:1020D00030439860586801268E40B0431679C6F3A5
:1020E00000168E4030435860167906F00306032E22
:1020F00009D0D8684F000326BE40B0434F00966811
:10210000BE403043D860167906F00306022E13D184
:10211000CF0803F1200656F827004E07F70E0F26CA
:10212000BE40B0434F07FF0E1669BE403043CF0894
:1021300003F1200646F8270018684F000326BE402A
:10214000B043167906F003064F00BE4030431860D6
:10215000566806F44036002E62D000BF0026009676
:10216000324E366846F48046304F3E603E46366812
:1021700006F48046009600BF00BF2D4E8F0856F82B
:1021800027008E07370F0F26BE40B043294EB342BB
:1021900002D1002610E043E0274EB34201D10126D0
:1021A0000AE0264EB34201D1022605E0244EB34296
:1021B00001D1032600E007268F073F0FBE403043C2
:1021C0001B4E8F0846F827001E4E3068A043566805
:1021D00006F4801606B120431A4E3060361D306872
:1021E000A043566806F4001606B12043154E361D6E
:1021F0003060144E361F3068A043566806F400362F
:1022000006B120430F4E361F3060361F3068A043A2
:10221000566806F4803606B120430A4E083E306008
:10222000491C1029FFF43AAFF8BD000044380240C1
:10223000083801400000024000040240000802404B
:10224000000C0240083C0140024613690B400BB1F0
:10225000012000E00020704710B5426921EA020326
:1022600002EA010443EA0443836110BD0AB18161BB
:1022700001E00B048361704701480068704700006B
:10228000A4000020704770472DE9F84F04462068ED
:1022900047692068D0F80480002594F83E90C7F381
:1022A000002040B1C8F3002028B145F001056FF4CB
:1022B000807021684861C7F3402040B1C8F3002016
:1022C00028B145F002056FF4007021684861C7F33A
:1022D000802070B3C8F3002058B3CA46B4F82AB0BF
:1022E00094F83D60206B0090BAF1200F0FD1BBF144
:1022F000000F0CD1212E06D0292E04D0282E06D175
:102300000098212803D1204602F0DEFF11E06FF48F
:1023100080602168486145F00405B9F1100F02D0D2
:10232000B9F1400F05D12068006840F400702168C1
:102330000860C7F3C02040B1C8F3002028B145F0C1
:1023400008056FF40060216848612DB1206C2843B6
:102350002064204602F08CFABDE8F88F2DE9F047A2
:1023600005464FF0000928684668D5F82CA095F876
:102370003E7095F83D80102F01D0402F75D1286810
:10238000D0F818902868446904F0010060B9BAF5E3
:102390002A0F02D0BAF12A4F01D1012000E000201B
:1023A000012801D1BDE8F08704F0010048B1C6F36F
:1023B000402030B1284602F0D1F9284602F03EFE16
:1023C000B7E0C4F3C00030B1C6F3402018B12846CE
:1023D00002F0EBFCADE0C4F3400030B1C6F34020A6
:1023E00018B1284602F0F6FCA3E0C9F3800040B320
:1023F0002868406800F40060B0F5006FE0D0C4F3D6
:10240000C01048B1C6F3802030B1C4F3800018B9C1
:10241000284602F05EFC8CE0C4F380000028CFD098
:10242000C6F340200028CBD0B8F1210F03D12846B5
:1024300002F0FFFB7DE0402F7BD1284602F04DFEED
:1024400077E02868406800F40060B0F5006F70D055
:10245000C4F3801050B1C6F3802038B1C4F38000BB
:1024600020B9284602F06DFB63E00BE0C4F3800066
:1024700000285ED0C6F3402000285AD0284602F03B
:10248000CDFA56E0286C10B12868446904E0286849
:10249000D0F8189028684469C4F3400060B1C6F3CE
:1024A000402048B1286C10B12868D0F818904946EF
:1024B000284602F0D1FE3CE0C4F3001030B1C6F370
:1024C000402018B1284602F04FFF32E0B8F1210F4A
:1024D00002D0B8F1290F16D1C4F3C01048B1C6F329
:1024E000802030B1C4F3800018B9284602F091FE74
:1024F0001FE0C4F38000E0B1C6F34020C8B1284615
:1025000002F07AFE15E0C4F3801048B1C6F38020D3
:1025100030B1C4F3800018B9284602F04AFE08E042
:10252000C4F3800028B1C6F3402010B1284602F061
:1025300033FE00BF36E7704770B504460CB9012082
:1025400070BD94F83D0028B9002084F83C00204676
:1025500000F0E0F8242084F83D002068006820F0B6
:102560000100216808602068006840F4004021688C
:1025700008602068006820F400402168086000F0CE
:1025800045FB05465C496068884206D85B48854241
:1025900001D2012007E0002005E05948854201D220
:1025A000012000E00020012800D1C9E75548B5FB13
:1025B000F0F62068406820F03F0030432168486012
:1025C0004D496068884201D8701C07E04FF496704E
:1025D00070434FF47A71B0FBF1F0401C2168096A36
:1025E00021F03F010843216808624349606888423E
:1025F00014D8681E61684900B0FBF1F0401CC0F3BC
:102600000B00042801D204203DE0681E61684900E7
:10261000B0FBF1F0401CC0F30B0034E0A06838B907
:10262000681E616801EB4101B0FBF1F0401C0AE05B
:10263000681E616801EBC10202EB0111B0FBF1F011
:10264000401C40F48040C0F30B0008B901201AE0A0
:10265000A06848B9681E616801EB4101B0FBF1F068
:10266000401CC0F30B000CE0681E616801EBC10266
:1026700002EB0111B0FBF1F0401CC0F30B0040F481
:10268000804040F400402168C9694CF6FF729143D4
:1026900008432168C861D4E9070108432168096833
:1026A00021F0C001084321680860D4E90310084301
:1026B0002168896848F2FF329143084321688860A5
:1026C000D4E9050108432168C96821F0FF010843E6
:1026D0002168C8602068006840F001002168086037
:1026E00000202064202084F83D000020206384F82E
:1026F0003E0000BF24E70000A086010080841E0089
:1027000000093D0040420F00704770477047704716
:102710007047000010B586B00446142101A8FDF7EB
:1027200019FE2349206888423FD100BF0020009055
:102730002048006840F002001E4908600846006812
:1027400000F00200009000BF00BFC02001901220E6
:10275000029000200390032004900420059001A91A
:102760001548FFF793FC00BF00200090114810307F
:10277000006840F400100F491031086008460068F6
:1027800000F40010009000BF00BF002205211F20B0
:1027900000F000F91F2000F0EDF8002205212020B4
:1027A00000F0F8F8202000F0E5F806B010BD0000B9
:1027B0000054004030380240000402407047704727
:1027C00070B504460CB9012070BD4CF6CC402168B0
:1027D000086045F2555021680860D4E9001048604F
:1027E0002168A0688860FFF747FD05460BE0FFF70A
:1027F00043FD401B312806D92068C06800F0030063
:1028000008B10320E0E72068C06800F0030000285A
:10281000EDD14AF6AA20216808600020D4E70146DD
:102820004AF6AA200A681060002070470348006832
:10283000034909780844014908607047A400002052
:10284000AC00002010B50D48006840F400700B4942
:1028500008600846006840F4806008600846006828
:1028600040F480700860032000F0D2F80F2000F0E0
:1028700007F800F055F8002010BD0000003C0240B1
:10288000F0B587B004460026002700BF0020009066
:102890001E48006840F001001C49086008460068B6
:1028A00000F00100009000BF00BF01A902A800F0E5
:1028B00085F900F0BBF906461548B6FBF0F0471E57
:1028C00014481549086040F2E7311348C160476079
:1028D000002101618160816100F074FF054695B9B6
:1028E0000D4800F0E5FF05466DB9192000F042F8EB
:1028F000102C07D200222146192000F04BF807487F
:10290000046000E00125284607B0F0BD44380240CD
:1029100040420F00000001402C070020A8000020CA
:1029200008B500BF002000901148006840F48040C6
:102930000F4908600846006800F48040009000BF1E
:1029400000BF00BF00200090081F006840F08050CA
:10295000091F08600846006800F08050009000BF22
:1029600000BF00220F21901E00F014F808BD0000E7
:102970004438024001460846002809DB00F01F03E6
:1029800001229A4043099B0003F1E023C3F8002190
:1029900000BF70472DE9F05F80460D4616460027C0
:1029A00004F052FB074639462A46334601F0070039
:1029B000C0F1070ABAF1040F02D94FF0040A01E08E
:1029C000C0F1070AD14600F1040ABAF1070F02D29A
:1029D0004FF0000A01E0A0F1030AD4464FF0010ACB
:1029E0000AFA09FAAAF1010A0AEA020A0AFA0CFA30
:1029F0004FF0010B0BFA0CFBABF1010B0BEA030BD5
:102A00004AEA0B042146404604F026FBBDE8F09F4D
:102A100000BF00F00702064B19684FF6FF0319408C
:102A2000044B0B4343EA0221014B196000BF70477E
:102A30000CED00E00000FA0570B504460D460CB937
:102A4000012070BD5848006800F00700A84209D274
:102A500055490D700846006800F00700A84201D0F3
:102A60000120EEE7207800F0020002281DD1207836
:102A700000F00400042805D14C48006840F4E05000
:102A80004A490860207800F00800082805D1474826
:102A9000006840F46040454908604448006820F000
:102AA000F000A168084341490860207800F0010067
:102AB000A8B36068012807D13C4808380068C0F313
:102AC0004040B8B90120BCE76068022802D06068C5
:102AD000032807D1354808380068C0F3406048B97A
:102AE0000120AEE7314808380068C0F3400008B95B
:102AF0000120A6E72D48006820F003006168084324
:102B00002A490860FFF7B8FB064609E0FFF7B4FB67
:102B1000801B41F28831884202D9032091E707E007
:102B20002248006800F00C006168B0EB810FEDD125
:102B30001D48006800F00700A84209D91A490D7025
:102B40000846006800F00700A84201D0012078E79D
:102B5000207800F00400042807D11448006820F40D
:102B6000E050E168084311490860207800F008004F
:102B7000082808D10D48006820F46040216940EA27
:102B8000C1000A49086000F061F808490968C1F30A
:102B90000311074A515CC8400649086006480068AE
:102BA000FFF76EFE00204CE7003C02400838024070
:102BB0004EA70008B0000020A80000200F220260ED
:102BC0000D4A126802F0030242600B4A126802F0DA
:102BD000F0028260084A126802F4E052C260064ABB
:102BE000126802F46042D2080261044A126802F0DC
:102BF00007020A607047000008380240003C0240AB
:102C00000148006870470000B000002000B5FFF7E1
:102C1000F7FF04490968C1F38221034A515CC840A7
:102C200000BD0000083802405EA7000800B5FFF7AD
:102C3000E7FF04490968C1F34231034A515CC840C7
:102C400000BD0000083802405EA700082DE9F047EB
:102C5000002400250026A1462548006800F00C004D
:102C600020B1042805D008283AD105E0DFF8849087
:102C700039E0DFF8849036E01D48001F006800F05E
:102C80003F041B48001F006800F4800078B11A4818
:102C90001749091F0968C1F38811A0FB017001469B
:102CA000224600233846FDF70BFB05460EE011488F
:102CB0000F49091F0968C1F38811A0FB0170014683
:102CC000224600233846FDF7FBFA05460848001F58
:102CD0000068C0F30140401C4600B5FBF6F902E075
:102CE000DFF8109000BF00BF4846BDE8F087000045
:102CF000083802400024F40040787D01F8B504460D
:102D00000CB90120F8BD207800F00100002874D033
:102D1000F748006800F00C0004280DD0F448006863
:102D200000F00C00082813D1F148001F006800F4DF
:102D30008000B0F5800F0BD1ED4808380068C0F373
:102D40004040002859D06068002856D10120D9E7BA
:102D500000BF6068B0F5803F08D1E54808380068DA
:102D600040F48030E249083908601EE06068B0F540
:102D7000A02F0DD1DE480838006840F48020DC49DF
:102D8000083908600846006840F4803008600CE0AC
:102D9000D7480838006820F48030D54908390860E1
:102DA0000846006820F48020086000BF606890B189
:102DB000FFF762FA054606E0FFF75EFA401B64285B
:102DC00001D903209EE7CA4808380068C0F3404094
:102DD0000028F1D011E0FFF74FFA054606E0FFF7B3
:102DE0004BFA401B642801D903208BE7C048083800
:102DF0000068C0F340400028F1D1207800F00200C4
:102E000002285FD1BA48006800F00C0058B1B848F9
:102E1000006800F00C0008281CD1B548001F0068AD
:102E200000F48000B0B9B24808380068C0F3400030
:102E300020B1E068012801D0012063E7AC480838E0
:102E4000006820F0F800216940EAC100A84908396B
:102E5000086037E0E06800B30120A6490860FFF78A
:102E60000BFA054606E0FFF707FA401B022801D9D6
:102E7000032047E79E4808380068C0F34000002858
:102E8000F1D09B480838006820F0F800216940EA3A
:102E9000C10097490839086014E00020954908608E
:102EA000FFF7EAF9054606E0FFF7E6F9401B0228BE
:102EB00001D9032026E78E4808380068C0F3400097
:102EC0000028F1D1207800F0080008282CD1606992
:102ED000A8B1012088490860FFF7CEF9054606E051
:102EE000FFF7CAF9401B022801D903200AE78048EE
:102EF0006C300068C0F340000028F1D014E00020DE
:102F00007D490860FFF7B8F9054606E0FFF7B4F918
:102F1000401B022801D90320F4E675486C30006894
:102F2000C0F340000028F1D1207800F0040004280C
:102F300070D100276E483830006800F0805090B99A
:102F400000BF002000906A483830006840F0805090
:102F50006749383108600846006800F080500090EA
:102F600000BF00BF01276548006800F48070B0B959
:102F70006248006840F4807060490860FFF77CF99F
:102F8000054606E0FFF778F9401B022801D9032027
:102F9000B8E65A48006800F480700028F2D000BFFC
:102FA000A068012808D152486830006840F001004C
:102FB0004F49683108601DE0A06805280DD14C48D4
:102FC0006830006840F004004949683108600846EC
:102FD000006840F0010008600CE045486830006877
:102FE00020F001004249683108600846006820F07E
:102FF0000400086000BFA068A8B1FFF73DF90546CE
:1030000009E0FFF739F9401B41F28831884202D9C3
:10301000032077E626E0364868300068C0F34000B9
:103020000028EED013E0FFF727F9054608E0FFF788
:1030300023F9401B41F28831884201D9032061E61F
:103040002B4868300068C0F340000028EFD1012F02
:1030500007D127483830006820F0805024493831A3
:10306000086000BFA069002850D02148006800F027
:103070000C00082860D0A069022848D100201D4912
:103080000866FFF7F9F8054606E0FFF7F5F8401B7C
:10309000022801D9032035E6154808380068C0F336
:1030A00040600028F1D1D4E907010843616A40EA91
:1030B00081110122A06AC2EB500041EA00412C209C
:1030C000005D41EA00613020005D41EA007008497E
:1030D000091F0860012007490866FFF7CDF805467B
:1030E0000EE0FFF7C9F8401B022809D9032009E6C2
:1030F0000838024000004742800E474200700040FE
:1031000028480068C0F340600028EAD048E000206A
:1031100025490866FFF7B0F8054606E0FFF7ACF86A
:10312000401B022801D90320ECE51E480068C0F3CB
:1031300040600028F2D133E0A069012800D1E1E528
:103140001848001D0668A069012827D006F48001F0
:10315000E069814222D106F03F01206A81421DD1FF
:1031600047F6C0703040616AB0EB811F16D106F49B
:1031700040310122A06AC2EB5000B1EB004F0DD1EB
:1031800006F070612C20005DB1EB006F06D106F0F7
:10319000E0413020005DB1EB007F01D00120B1E5BE
:1031A0000020AFE5003802400000474270470000B1
:1031B000F8B504462068466820688568C5F3801025
:1031C00048B905F0010030B1C6F3801018B12046AF
:1031D000216C8847F8BDC5F3400030B1C6F3C0107C
:1031E00018B12046616C8847F4E7C5F3401030B948
:1031F000C5F3801018B9C5F3002000287CD0C6F3B1
:10320000401000287DD0C5F38010F0B194F8510033
:1032100003280ED0606D40F00400606500BF002000
:1032200000902068C068009020688068009000BF0F
:103230000BE000BF002000902068C068009020686C
:103240008068009000BF00BFC4E7C5F3401088B19C
:10325000606D40F00100606500BF002000902068B4
:10326000806800902068006820F0400021680860B5
:1032700000BF00BFC5F3002058B1606D40F00800EA
:10328000606500BF0020009020688068009000BF4B
:1032900000BF606D78B32068406820F0E0002168CE
:1032A0004860012084F8510006F00200022802D094
:1032B00006F0010008B32068406820F00300216890
:1032C0004860E06C50B11048E16C0865E06CFEF7B6
:1032D000D1FC18B1606D40F040006065A06C50B149
:1032E0000948A16C0865A06CFEF7C4FC18B1606DBC
:1032F00040F04000606503E003E02046FFF756FF22
:1033000068E700BF66E70000415F000810B50446AB
:103310000CB9012010BD606A38B96068B0F5827FD1
:1033200000D105E00021E16102E00021216161613D
:103330000021A16294F8510028B9002084F85000BF
:10334000204600F047F8022084F851002068006809
:1033500020F0400021680860A08800F48270218974
:1033600001F404410843A18901F400610843217C70
:1033700001F002010843217D01F001010843218B86
:1033800001F400710843217F01F038010843202136
:10339000095D01F080010843218D01F400510843CB
:1033A000216808600421A06901EA104094F8241003
:1033B00001F010010843216848602068C06920F4CA
:1033C00000602168C86100206065012084F8510018
:1033D00000209FE710B586B00446142101A8FCF731
:1033E000B9FF1F492068884238D100BF00200090F3
:1033F0001C48006840F480401A490860084600688C
:1034000000F48040009000BF00BF00BF002000908B
:1034100014481038006840F0020012491039086062
:103420000846006800F00200009000BF00BF4FF4A3
:10343000604001900220029000200390032004903D
:103440000520059001A90848FEF720FE002205216D
:103450002420FFF79FFA2420FFF78CFA06B010BD56
:103460000038004040380240000402402DE9FF5F70
:103470000446884691461D460E9E0120029000207B
:10348000019000BF94F85000012803D1022004B03D
:10349000BDE8F09F012084F8500000BFFEF7ECFE6D
:1034A000074694F851B060680390AA46BBF1010F3B
:1034B0000BD00398B0F5827F04D1A06810B9BBF19E
:1034C000040F02D002200190DBE0B8F1000F03D01E
:1034D000B9F1000F00D015B901200190D1E094F8A6
:1034E0005100042802D0052084F8510000206065B6
:1034F000C4F83890E587A587C4F83080E586A586AE
:10350000206460642068006800F04000402805D016
:103510002068006840F0400021680860E068B0F56D
:10352000006F4AD1606810B1BAF1010F09D1206B68
:1035300000882168C860206B801C2063E08E401EDC
:10354000E08633E02068806800F00200022810D195
:10355000E08E70B1029801280BD1206B00882168A1
:10356000C860206B801C2063E08E401EE086002037
:1035700002902068806800F0010068B1E08F58B1C7
:103580002068C068A16B0880A06B801CA063E08FDE
:10359000401EE08701200290FEF76EFEC01BB04285
:1035A00004D3701C10B1032001906AE0E08E002863
:1035B000C8D1E08F0028C5D14AE0606810B1BAF1E7
:1035C000010F09D1206B007821680873206B401C23
:1035D0002063E08E401EE08634E02068806800F0C2
:1035E0000200022810D1E08E70B1029801280BD1A0
:1035F000206B007821680873206B401C2063E08EEC
:10360000401EE086002002902068806800F00100E3
:1036100068B1E08F58B12068C068A16B0870A06BDA
:10362000401CA063E08F401EE08701200290FEF75F
:1036300023FEC01BB04201D3701C00B916B9032091
:1036400001901EE0E08E0028C7D1E08F0028C4D191
:103650003A463146204602F07DFC20B1012001901F
:10366000202060650DE0A06850B900BF00200090E8
:103670002068C068009020688068009000BF00BF8C
:1036800000BF012084F8510000BF002084F85000E2
:1036900000BF0198FBE67047704710B50346002253
:1036A00000BF93F83C00012801D1022010BD012089
:1036B00083F83C0000BF22F0FF00CC6840EA04021F
:1036C00022F440708C6840EA040222F480604C6866
:1036D00040EA040222F400600C6840EA040222F48A
:1036E00080500C6940EA040222F400504C6940EA20
:1036F000040222F48040CC6940EA04021868426463
:1037000000BF002083F83C0000BF00BFCEE70000F0
:1037100030B502460B4600BF92F83C00012801D1AB
:10372000022030BD012082F83C0000BF022082F858
:103730003D00106844681068816824F070041868BF
:10374000044310684460184D1068A8421BD01068EC
:10375000B0F1804F17D0154D1068A84213D0144D0A
:103760001068A8420FD0134D1068A8420BD0124D1C
:103770001068A84207D0114D1068A84203D0104D20
:103780001068A84205D121F08001586801431068F3
:103790008160012082F83D0000BF002082F83C00DB
:1037A00000BF00BFBDE70000000001400004004072
:1037B00000080040000C00400004014000400140AF
:1037C0000018004010B504460CB9012010BD94F853
:1037D0003D0028B9002084F83C00204600F026F87F
:1037E000022084F83D00211D206802F017FD012011
:1037F00084F8460000BF84F83E0001213F200155B7
:10380000402001554120015500BF00BF012084F830
:10381000420043200155442001554520015500BF79
:10382000012084F83D000020D0E7000038B50446B0
:103830001C492068884218D100BF002000901A4817
:10384000006840F00200184908600846006800F06F
:103850000200009000BF00BF002206211D20FFF7DC
:1038600099F81D20FFF786F81BE010492068884270
:1038700017D100BF002000900B48006840F0800086
:10388000094908600846006800F08000009000BF09
:1038900000BF002205212C20FFF77CF82C20FFF729
:1038A00069F838BD0004004040380240001C004068
:1038B000014691F83D00012801D001207047022007
:1038C00081F83D000868C06840F001000B68D860CE
:1038D0001A4B086898421BD00868B0F1804F17D087
:1038E000174B0868984213D0164B086898420FD0BF
:1038F000154B086898420BD0144B0868984207D0C3
:10390000134B0868984203D0124B086898420CD1B8
:103910000868806800F00702062A0CD00868006872
:1039200040F001000B68186005E00868006840F08E
:1039300001000B6818600020C0E700000000014093
:103940000004004000080040000C0040000401405A
:10395000004001400018004001460868C06820F09F
:1039600001000A68D06000BF0868006A41F21112C5
:10397000104050B90868006A9210104028B90868D1
:10398000006820F001000A68106000BF012081F883
:103990003D00002070472DE9F04104460D46002708
:1039A00000BF94F83C00012802D10220BDE8F0815C
:1039B000012084F83C0000BF022084F83D0020680C
:1039C000866826F0770626F47F4620688660286899
:1039D000502833D00CDC202850D004DC00284BD0F9
:1039E000102851D149E0302849D040284CD139E045
:1039F00060282DD0702807D0B0F5805F03D0B0F5D7
:103A0000005F41D10DE041E0D5E902136A6820680A
:103A100002F070FC2068866846F0770620688660B1
:103A200034E0D5E902136A68206802F063FC20687C
:103A3000806840F480402168886027E0EA6869680F
:103A4000206802F047FD5021206802F05EFC1DE076
:103A5000EA686968206802F050FD6021206802F081
:103A600054FC13E0EA686968206802F033FD4021E5
:103A7000206802F04AFC09E000BF00BF00BF2968CF
:103A8000206802F042FC01E0012700BF00BF0120D6
:103A900084F83D0000BF002084F83C0000BF384699
:103AA00084E72DE9F04104460D4614B90120BDE834
:103AB000F08194F83D0028B9002084F83C002046AD
:103AC00000F054F8022084F83D002068806844F239
:103AD0000701884321688860211D206802F09EFB51
:103AE0002068D0F80880206886692068076A2868FE
:103AF00040EA080840F203308643A969A86840EA12
:103B00000120064340F60C4086434FF2F000864306
:103B1000E969E86840EA0120064328690001296A4A
:103B200040EA0130064327F0220727F08807696939
:103B3000686840EA011007432068C0F808802068E0
:103B4000866120680762012084F8460084F83E0000
:103B500001213F200155012084F8420043200155F6
:103B6000012084F83D000020A1E7000010B586B0D8
:103B70000446142101A8FCF7EDFB2068B0F1804F4A
:103B800037D100BF002000901B48006840F00100C2
:103B9000194908600846006800F00100009000BF65
:103BA00000BF00BF0020009013481038006840F0AC
:103BB00001001149103908600846006800F0010052
:103BC000009000BF00BF032001900220029001205E
:103BD0000390002004900120059001A90748FEF7FA
:103BE00055FA002205211C20FEF7D4FE1C20FEF70A
:103BF000C1FE06B010BD0000403802400000024087
:103C0000704710B5044620680069C0F34000D8B181
:103C10002068C068C0F34000B0B16FF002002168B6
:103C20000861012020772068806900F0030018B146
:103C30002046FFF7E5FF05E0204600F0DFF82046CC
:103C400000F0CEF90020207720680069C0F38000E2
:103C5000D8B12068C068C0F38000B0B16FF0040034
:103C600021680861022020772068806900F4407094
:103C700018B12046FFF7C4FF05E0204600F0BEF86B
:103C8000204600F0ADF90020207720680069C0F3DD
:103C9000C000D8B12068C068C0F3C000B0B16FF0F8
:103CA000080021680861042020772068C06900F0BE
:103CB000030018B12046FFF7A3FF05E0204600F0FF
:103CC0009DF8204600F08CF90020207720680069DC
:103CD000C0F30010D8B12068C068C0F30010B0B1C4
:103CE0006FF0100021680861082020772068C06903
:103CF00000F4407018B12046FFF782FF05E020462F
:103D000000F07CF8204600F06BF900202077206856
:103D1000006900F0010058B12068C06800F001009F
:103D200030B16FF0010021680861204600F05AF9B7
:103D300020680069C0F3C01058B12068C068C0F3A3
:103D4000C01030B16FF08000216808612046FFF795
:103D5000A2FC20680069C0F3801058B12068C068D8
:103D6000C0F3801030B16FF0400021680861204638
:103D700000F05CF920680069C0F3401058B1206879
:103D8000C068C0F3401030B16FF0200021680861B6
:103D90002046FFF781FC10BD10B586B00446142103
:103DA00001A8FCF7D7FA1249206888421DD100BF4C
:103DB000002000900F48006840F004000D490860A2
:103DC0000846006800F00400009000BF00BF4020DB
:103DD0000190022002900020039002200490032012
:103DE000059001A90448FEF751F906B010BD000086
:103DF00000040140303802400008024070472DE9BD
:103E0000F04104460D461646002700BF94F83C00DA
:103E1000012802D10220BDE8F081012084F83C0095
:103E200000BF36B1042E1BD0082E31D00C2E5ED12F
:103E300045E02946206802F071FA2068806940F068
:103E40000800216888612068806920F004002168EA
:103E5000886120688069296908432168886148E091
:103E60002946206802F092FA2068806940F40060D8
:103E7000216888612068806920F4806021688861F9
:103E800020688069296940EA01202168886130E062
:103E90002946206802F0B8FA2068C06940F008009E
:103EA0002168C8612068C06920F004002168C861E9
:103EB0002068C069296908432168C86119E029465A
:103EC000206802F0DDFA2068C06940F400602168D3
:103ED000C8612068C06920F480602168C8612068DA
:103EE000C069296940EA01202168C86101E0012711
:103EF00000BF00BF00BF002084F83C0000BF384670
:103F000089E710B504460CB9012010BD94F83D00B6
:103F100028B9002084F83C00204600F025F8022053
:103F200084F83D00211D206802F078F9012084F812
:103F3000460000BF84F83E0001213F20015540208B
:103F400001554120015500BF00BF012084F8420007
:103F500043200155442001554520015500BF012053
:103F600084F83D000020D0E738B504461A4920689F
:103F700088422FD100BF002000901848006840F010
:103F80000200164908600846006800F00200009030
:103F900000BF00BF002205212B20FEF7FBFC2B20D9
:103FA000FEF7E8FC002205212C20FEF7F3FC2C2074
:103FB000FEF7E0FC002205212D20FEF7EBFC2D2072
:103FC000FEF7D8FC002205212E20FEF7E3FC2E2070
:103FD000FEF7D0FC38BD0000000401404438024028
:103FE0007047000010B504460C492068884201D192
:103FF000FEF71CFC0A49206888420DD104210948BB
:10400000FEF722F9012804D1002204210548FEF719
:104010002DF90548FFF7A0FC10BD0000000001408D
:10402000001C0040000002409C0500207047F8B5CD
:1040300004460E46174694F83E00202836D106B1B5
:104040000FB90120F8BD00BF94F83C00012801D150
:104050000220F7E7012084F83C0000BF20633A46C5
:104060003146204602F0D2FC0546EDB9206B01280E
:1040700019D100BF002000902068006800902068DF
:104080004068009000BF00BF00BF00BF21680C3136
:1040900051E8001F41F0100021680C3141E8000296
:1040A000002AF3D100E001252846CBE70220C9E72A
:1040B00070B504460E460B492068884210D10A4864
:1040C00000684068C0F11400C5B20023012207490E
:1040D0000748006803F090FB29460448FCF73AF9CA
:1040E00070BD0000001001406C0600207803002025
:1040F0009C000020704700002DE9F84F044620681E
:1041000005682068C668206847694FF00009CA46FC
:1041100005F00F09B9F1000F0AD105F0200038B100
:1041200006F0200020B1204602F0DEFABDE8F88F4C
:10413000B9F1000F7CD007F0010018B906F49070B7
:10414000002875D005F0010030B106F4807018B178
:10415000206C40F00100206405F0040030B107F04D
:10416000010018B1206C40F00200206405F002004C
:1041700030B107F0010018B1206C40F00400206459
:1041800005F0080048B106F0200010B907F0010062
:1041900018B1206C40F008002064206C002846D044
:1041A00005F0200028B106F0200010B1204602F0F2
:1041B0009BFA20684069C0F3801A206C00F0080068
:1041C00010B9BAF1000F2DD0204602F034FA206861
:1041D000406900F04000402820D100BF00BF2168A6
:1041E000143151E8001F21F040002168143141E8EA
:1041F0000002002AF3D100BFA06B50B17548A16B3B
:104200000865A06BFDF736FD88B1A06B016D88478E
:104210000DE02046FFF76EFF09E009E02046FFF7BA
:1042200069FF04E02046FFF765FF002020647DE77A
:10423000206B012876D105F01000002872D006F01E
:1042400010000028FAD000BF00200090206800680D
:10425000009020684068009000BF00BF206840695F
:1042600000F0400040285ED1A06B006840681FFA53
:1042700080F8B8F1000F54D0A08D404551DDA4F86E
:104280002E80A06BC069B0F5807F43D000BF00BF17
:1042900021680C3151E8001F21F4807021680C3135
:1042A00041E80002002AF3D100BF00BF00BF21682F
:1042B000143151E8001F21F001002168143141E858
:1042C0000002002AF3D100BF00BF00BF21681431F3
:1042D00051E8001F21F040002168143141E800023C
:1042E000002AF3D100BF202084F83E000020206384
:1042F00000BF00BF21680C3151E8001F21F0100001
:1043000021680C3141E80002002AF3D100BFA06B04
:10431000FDF75AFCA08DE28D801A81B22046FFF78E
:10432000C7FE03E740E0A08DE18D401A1FFA80F838
:10433000E08DC0B3B8F1000F35D000BF00BF2168D9
:104340000C3151E8001F21F4907021680C3141E8D4
:104350000002002AF3D100BF00BF00BF2168143162
:1043600051E8001F21F001002168143141E80002EA
:10437000002AF3D100BF202084F83E0000202063F3
:1043800000BF00BF21680C3151E8001F21F0100070
:1043900021680C3141E80002002AF3D100BF4146F8
:1043A0002046FFF785FEC1E605F0800030B106F03B
:1043B000800018B1204602F0B2FBB7E605F04000DD
:1043C00030B106F0400018B1204602F06AF9ADE6BF
:1043D00000BFABE62365000810B504460CB9012008
:1043E00010BDA06900B100E000BF94F83D0028B9FD
:1043F000002084F83C00204600F028F8242084F8AF
:104400003D002068C06820F400502168C860204644
:1044100002F0E6F92068006920F490402168086104
:104420002068406920F02A00216848612068C0683F
:1044300040F400502168C86000202064202084F8E7
:104440003D0084F83E000020CAE7000010B586B0A9
:104450000446142101A8FBF77DFF5E4920688842CD
:1044600076D100BF002000905B48006840F010004B
:10447000594908600846006800F01000009000BF2D
:1044800000BF00BF0020009053481438006840F07F
:1044900001005149143908600846006800F0010025
:1044A000009000BF00BF4FF4C06001900220029056
:1044B00000200390032004900720059001A947489D
:1044C000FDF7E4FD4648474908604FF0006048604A
:1044D000002144488160C1604FF480610161002186
:1044E00041618161C16101624162FDF7FBFC08B17C
:1044F000FDF7B6FA00BF3B48A063846300BF3848AD
:104500007830394908604FF00060486040213648F3
:1045100081600021C1604FF480610161002141612F
:104520008161C16101624162FDF7DCFC08B1FDF708
:1045300097FA00BF2C486063846300BF0022052106
:104540002520FEF727FA2520FEF714FA3FE0FFE7C3
:104550002649206888423AD100BF002000901E48BA
:10456000001F006840F480201B49091F08600846AE
:10457000006800F48020009000BF00BF00BF002052
:10458000009015481438006840F0040012491439AE
:1045900008600846006800F00400009000BF00BFFB
:1045A0004FF440600190022002900020039003200D
:1045B00004900720059001A90D48FDF767FD002232
:1045C00005212720FEF7E6F92720FEF7D3F906B0EC
:1045D00010BD0000001001404438024000000240BD
:1045E000406402406C060020CC06002000480040D9
:1045F0000008024070B504460D46164694F83E0089
:10460000202816D105B10EB9012070BD00BF94F865
:104610003C00012801D10220F7E7012084F83C008A
:1046200000BF0020206332462946204602F052FA9D
:10463000EBE70220E9E7000010B5044606492068D0
:10464000884208D10549087804F0E4FF01220349B3
:104650000348FFF7CFFF10BD004400407501002064
:10466000280600202DE9F84F04460E4617469946C5
:104670004FF0000A94F83D0020285AD106B117B92E
:104680000120BDE8F88F00BF94F83C00012801D15B
:104690000220F6E7012084F83C0000BF00202064DF
:1046A000212084F83D00FDF7E7FD8246A784E784DA
:1046B000A068B0F5805F04D1206910B90025B0462C
:1046C00002E035464FF0000800BF002084F83C00AF
:1046D00000BF1BE05346002280212046CDF8009009
:1046E00002F04DFA08B10320CBE745B9B8F8000055
:1046F000C0F308002168486008F1020803E0287848
:10470000216848606D1CE08C401EE084E08C00282D
:10471000E0D15346002240212046CDF8009002F01F
:104720002EFA08B10320ACE7202084F83D000020D9
:10473000A7E70220A5E7704700BFFEE710B50248D3
:10474000FDF7A2FD10BD00000C04002010B50248CA
:10475000FDF704FE10BD00000C040020C16AB1F595
:104760002A0F02D10121C16205E0C16AB1F12A4FCD
:1047700001D10821C1627047F8B5054600200090BC
:10478000AC6B94F83D60394800681921B0FBF1F03A
:104790004FF47A71B0FBF1F0C0EBC00000EB800089
:1047A000009000BF009820B9206C40F020002064E9
:1047B00009E00098401E00902068006800F4007036
:1047C000B0F5007FEED000BF606B10B10020616BD0
:1047D000C863A06B10B10020A16BC863206800689B
:1047E00020F480602168086000206085606B10B153
:1047F0000020616B0865A06B10B10020A16B0865FB
:104800002068006820F001002168086094F83D00ED
:1048100060280AD1202084F83D00002084F83E0062
:1048200020642046FDF72EFD1EE006F02800282813
:1048300011D12068006840F00100216808602068FC
:10484000006840F480602168086000202063282010
:1048500084F83D0005E0202084F83D00002084F825
:104860003E002046FDF767FEF8BD0000B0000020C6
:104870002DE9F041044694F83D6094F83E70102F05
:1048800001D0402F07D1222E05D12068006820F4E6
:1048900000602168086006F02800282805D1002063
:1048A0002063282084F83D0010E02068406800F470
:1048B0000060B0F5006F07D0602E05D0202084F88E
:1048C0003D00002084F83E000020206320684068FE
:1048D00000F40060B0F5006F40D12068406820F41B
:1048E000006021684860606B90F83500012814D0A2
:1048F0004848616B0865606BFDF7BCF900285BD028
:104900002068006820F0010021680860202084F8F9
:104910003D00606B016D88474EE03E48A16B086525
:10492000A06BFDF7A7F9002846D020684069C0F3C6
:10493000801030B120680069616A0870606A401CAC
:1049400060622068006820F0010021680860202073
:1049500084F83D00A06B016D88472DE094F83D0080
:1049600060281AD1202084F83D00002020642068AF
:104970004069C0F3801030B120680069616A087036
:10498000606A401C60622068006820F001002168B5
:1049900008602046FDF776FC0EE020684069C0F311
:1049A000801030B120680069616A0870606A401C3C
:1049B00060622046FDF7BFFD256C05F0010058B987
:1049C00005F00200022807D005F00400042803D0F7
:1049D00005F00800082805D12068406820F4E06050
:1049E0002168486094F83D60206C00F004000428C1
:1049F0000ED1282E0CD10848E06200202063202030
:104A000084F83D00002084F83E002046FDF77CFE3F
:104A1000BDE8F081794700080000FFFF70B504464B
:104A2000E56A608D042810D12068406820F4806019
:104A30002168486020680069616A0870606A401CEB
:104A40006062608D401E60857AE0608D03281AD117
:104A50002068406820F4806021684860042D07D0F9
:104A6000022D05D02068006820F48060216808606D
:104A700020680069616A0870606A401C6062608D2D
:104A8000401E60855CE0608D02284FD1012D01D071
:104A9000102D06D12068006820F48060216808602D
:104AA00012E0042D01D0022D06D12068006840F4E8
:104AB00080602168086007E0102D05D0206800683C
:104AC00040F400702168086020680069616A08701D
:104AD000606A401C6062608D401E608520680069CD
:104AE000616A0870606A401C6062608D401E60856B
:104AF0002068406820F4407021684860202084F8D5
:104B00003D0094F83E00402807D1002084F83E0084
:104B100020632046FDF7FBFD12E0002084F83E00F4
:104B2000122020632046FDF7F0FD09E020680069AF
:104B3000616A0870606A401C6062608D401E60851A
:104B400070BD70B5044694F83D00222870D1658D83
:104B5000032D13D920680069616A0870606A401CDF
:104B60006062608D401E6085608D03285FD1206883
:104B7000406820F480602168486058E0E06A0228BC
:104B80004FD0012D01D0002D4BD1204600F0B2FCBA
:104B900068BB2068006820F4806021680860206895
:104BA000406820F4E0602168486020680069616A1C
:104BB0000870606A401C6062608D401E6085202025
:104BC00084F83D0094F83E00402807D1002084F886
:104BD0003E0020632046FDF79AFD28E0002084F87F
:104BE0003E00122020632046FDF78FFD1FE0206865
:104BF000406820F4E0602168486020680069616ACC
:104C00000870606A401C6062608D401E60852020D4
:104C100084F83D00002084F83E002046FDF78BFC20
:104C200005E02068406820F480602168486000BF8B
:104C300070BD70B50446E56A94F83D00212847D15F
:104C4000608D50B1606A007821680861606A401C1C
:104C50006062608D401E60853AE0082D16D0202DE0
:104C600014D015F5803F11D02068406820F4E06032
:104C70002168486011202063002084F83E00202035
:104C800084F83D002046FDF741FD21E020684068A2
:104C900020F4E060216848602068006840F40070FB
:104CA0002168086000202063202084F83D0094F8EB
:104CB0003E00402806D1002084F83E002046FDF743
:104CC00027FD05E0002084F83E002046FDF71EFD8C
:104CD00070BD2DE9F041044694F83D5094F83E70C3
:104CE000E66A208DB0BB212D3CD1082E16D0202E97
:104CF00014D016F5803F11D02068406820F4E060A1
:104D00002168486011202063002084F83E002020A4
:104D100084F83D002046FDF7F9FC44E02068406837
:104D200020F4E060216848602068006840F400706A
:104D30002168086000202063202084F83D0094F85A
:104D40003E00402807D1002084F83E002046FDF7B1
:104D5000DFFC28E006E0002084F83E002046FDF756
:104D6000D5FC20E0212D03D0402F1CD1222D1AD1BB
:104D7000608D30B92068406820F480602168486008
:104D800011E094F83E00402803D1204600F0A5F938
:104D900009E0606A007821680861606A401C60620E
:104DA000608D401E6085BDE8F081416CC9B202682B
:104DB0001161416B11B1416BC96B21B9816B41B17B
:104DC000816BC96B29B10168496841F400610268CF
:104DD0005160704738B590F83E20C16A036B90F877
:104DE0003D40222C73D1046D64B9402A0AD100BF22
:104DF000002400940468646900940468A469009421
:104E000000BF1AE1046DC4B90469B4F5404F14D170
:104E100000BF002400940468646900940468A469D5
:104E2000009400BF00BF0468246844F480740568DF
:104E30002C60046D641C0465FFE0448D8CB900BFD8
:104E4000002400940468646900940468A4690094D0
:104E500000BF00BF0468246844F4007405682C6037
:104E6000DDE0448D012C72D111F5803F30D1046812
:104E7000246824F4806405682C600468646804F481
:104E80000064B4F5006F10D10468246824F48064D1
:104E900005682C6000BF00240094046864690094D5
:104EA0000468A469009400BFB9E000BF0024009426
:104EB0000468646900940468A469009400BF00BF9A
:104EC0000468246844F4007405682C60A7E0A9E035
:104ED000082923D0202921D0122B01D101291DD14D
:104EE00004290AD0022908D0102906D004682468B1
:104EF00024F4806405682C6005E00468246844F4A8
:104F0000806405682C6000BF002400940468646914
:104F100000940468A469009400BF80E004682468D9
:104F200024F4806405682C6000BF002400940468A9
:104F3000646900940468A469009400BF00BF046819
:104F4000246844F4007405682C6068E0FFE7448D31
:104F5000022C3BD1042910D002290ED010290CD0EC
:104F60000468246824F4806405682C60046824685C
:104F700044F4006405682C6005E00468246844F487
:104F8000806405682C600468646804F40064B4F507
:104F9000006F10D111F5803F07D0012905D00829F5
:104FA00003D0102901D0202905D10468646844F495
:104FB000805405686C6000BF002400940468646934
:104FC00000940468A469009400BF28E00468246881
:104FD00044F4806405682C600468646804F4006428
:104FE000B4F5006F10D111F5803F07D0012905D02D
:104FF000082903D0102901D0202905D1046864684C
:1050000044F4805405686C6000BF00240094046878
:10501000646900940468A469009400BF00BF002480
:1050200004650AE000BF00240094046864690094E9
:105030000468A469009400BF00BF38BD90F83E101A
:1050400040290ED1016D29B9416C01F0FE010268C1
:10505000116141E0416CC9B241F001010268116186
:105060003AE00169B1F5804F20D190F83D10212937
:1050700005D1416C01F0FE010268116105E0416C4F
:10508000C9B241F0010102681161416B11B1416B7C
:10509000C96B21B9816BF9B1816BC96BE1B1016851
:1050A000496841F400610268516015E0016D41B941
:1050B000416C01F44071F02242EAE1110268116191
:1050C0000AE0016D012907D1416C01F44071F12220
:1050D00042EAE11102681161704770B5044694F824
:1050E0003D50206D98B9E06C012807D1A06CC0B28A
:1050F00021680861206D801C20654CE0A06CC0F325
:10510000072021680861206D401C206543E0206D68
:10511000012807D1A06CC0B221680861206D401C35
:10512000206538E0206D022835D1222D09D1206874
:10513000006840F4807021680860206D401C206584
:1051400029E0608D60B1212D0AD1606A0078216864
:105150000861606A401C6062608D401E60851AE0D4
:10516000608DC0B9212D16D12068406820F4E06020
:10517000216848602068006840F400702168086079
:1051800000202063202084F83D00002084F83E00A9
:105190002046FDF7BDFA70BD418D49B1016809692E
:1051A000426A1170416A491C4162418D491E418524
:1051B000704770B5044694F83D50608DD8B12068B2
:1051C0000069616A0870606A401C6062608D401E00
:1051D0006085608D78B92A2D0DD12068406820F453
:1051E00080602168486022202063282084F83D00E8
:1051F0002046FDF7E3FA70BD418D49B1416A097857
:1052000002681161416A491C4162418D491E418514
:10521000704770B5044694F83D50608DD8B1606A0F
:10522000007821680861606A401C6062608D401EE1
:105230006085608D78B9292D0DD12068406820F4F3
:1052400080602168486021202063282084F83D0088
:105250002046FDF7B4FA70BDF8B504460D460027A8
:1052600094F83D0000F0280028281CD120684068F0
:1052700020F4806021684860C5F3800000B90127F0
:10528000C5F3C01010B9A08986B201E0208B86B2A8
:1052900000BF002084F83C0000BF3246394620465B
:1052A000FCF7F1FF0FE000BF00200090206840698C
:1052B000009020688069009000BF00BF00BF002000
:1052C00084F83C0000BFF8BD70B5044694F83D502A
:1052D000E66A082E01D0202E1FD1282D1DD121488D
:1052E000E0622068406820F4E060216848606FF464
:1052F0008060216848612068006820F4806021682F
:10530000086000202063202084F83D00002084F8FD
:105310003E002046FDF7F8F923E0212D1DD111486C
:10532000E06221202063202084F83D00002084F8E2
:105330003E002068406820F4E060216848606FF417
:105340008060216848612068006820F480602168DE
:1053500008602046FDF733FA03E06FF480602168AF
:10536000486170BD0000FFFF38B5044694F83D5019
:105370002068406820F4E0602168486000BF002099
:1053800000902068406900902068006840F00100AB
:105390002168086000BF00BF2068006820F48060BA
:1053A000216808602068406800F40060B0F5006F74
:1053B00042D1222D01D02A2D1FD1A06B0068406858
:1053C0006085608D18B1206C40F004002064206876
:1053D000406820F4006021684860A06BFCF75EFC28
:1053E000012829D04148A16B0865A06BFCF742FC5D
:1053F00010B3A06B016D88471EE0606B00684068C9
:105400006085608D18B1206C40F004002064206835
:10541000406820F4006021684860606BFCF73EFC47
:10542000012809D03148616B0865606BFCF722FCEC
:1054300010B1606B016D8847608D18B320684069BA
:10544000C0F3800048B120680069616A0870606A32
:10545000401C6062608D401E608520684069C0F31A
:10546000801048B120680069616A0870606A401C59
:105470006062608D401E6085608D18B1206C40F0C8
:1054800004002064206C18B12046FFF7F1F92BE0EE
:105490002A2D07D100202063282084F83D002046D3
:1054A000FDF78CF994F83D0028280DD11048E062F2
:1054B00000202063202084F83D00002084F83E0076
:1054C0002046FDF721F90FE0206B222801D0222D84
:1054D0000AD100202063202084F83D00002084F8B9
:1054E0003E002046FDF76AF938BD00007947000804
:1054F0000000FFFF08B5014600200090104800683A
:105500001922B0FBF2F04FF47A72B0FBF2F000EB2C
:105510008000009000BF0098401E0090009828B9BD
:10552000086C40F020000864012008BD086800688D
:1055300000F40070B0F5007FEDD00020F5E700002A
:10554000B000002000BF012002F072F80848007887
:105550002828F8DA06480078401C054908700548F4
:10556000FDF75DF947F2305002F062F8EBE700001A
:10557000560000206004002008B500BF0020009005
:105580000E48006840F480000C4908600846006836
:1055900000F48000009000BF00BF002205213A20E7
:1055A000FDF7F8F93A20FDF7E5F90022052146203C
:1055B000FDF7F0F94620FDF7DDF908BD303802406F
:1055C00010B53F4A0121052002F0C8F83D490860A6
:1055D0003D4A00213D4802F051F93D4908603D4AED
:1055E00000213D4802F04AF93C4908603C4A00214C
:1055F0003C4802F043F93C4908603C4A00213C48E1
:1056000002F03CF93B4908603B4A00213B4802F06C
:1056100035F93B4908603B4A00213B4802F02EF92E
:105620003A4908603A4A00213A4802F027F93A49D3
:1056300008603A4A00213A4802F020F939490860E6
:10564000394A0021394802F019F939490860394AC4
:105650000021394802F012F938490860384A00211F
:10566000384802F00BF938490860384A00213848B8
:1056700002F004F937490860374A0021374802F040
:10568000FDF837490860374A14210A2002F066F80D
:1056900035490860354A0321052002F05FF8344996
:1056A0000860344A14210A2002F058F83249086090
:1056B000324A14210A2002F051F83149086010BD25
:1056C00038A5000864000020F0A4000899600008D4
:1056D0005C00002014A50008A56000086000002000
:1056E00050A50008691A00086800002074A5000889
:1056F000CD1700086C00002098A50008CD05000813
:1057000070000020BCA50008855C00087400002023
:10571000E0A500083D6C00087800002004A6000801
:10572000455500087C00002028A60008A15C000860
:10573000800000204CA60008C15D00088400002005
:1057400070A60008055F00088800002094A60008E5
:10575000355C00088C000020B8A60008B91A0008C3
:1057600090000020DCA6000894000020F4A60008A9
:10577000980000200CA700089C00002024A7000827
:10578000A000002000B587B0142102A8FAF7E2FDBE
:1057900000BF002001906648006840F08000644926
:1057A00008600846006800F08000019000BF00BF5C
:1057B00000BF002001900846006840F00400086027
:1057C0000846006800F00400019000BF00BF00BF61
:1057D000002001900846006840F00100086008467B
:1057E000006800F00100019000BF00BF00BF002072
:1057F00001900846006840F0020008600846006812
:1058000000F00200019000BF00BF002240F2923180
:105810004848FCF72BFD002240F684114648FCF76F
:1058200025FD002241F207414448FCF71FFD0D20F1
:1058300002904FF4041003900020049002A93D4808
:10584000FCF724FC40F20230029001200390049007
:105850000020059002A93748FCF718FC40F6040028
:10586000029001200390022004900020059002A9DC
:105870003148FCF70BFC702002904FF404100390A9
:105880000020049002A92C48FCF700FC4FF4C070E3
:1058900002900120039000200490059002A9264860
:1058A000FCF7F4FB9020029001200390002004906C
:1058B000059002A91F48FCF7E9FB20200290002078
:1058C0000390049002A91B48FCF7E0FB41F2014061
:1058D00002900120039004900020059002A917482F
:1058E000FCF7D4FB062002900120039000200490D6
:1058F000059002A91148FCF7C9FB002205210620EA
:10590000FDF748F80620FDF735F8002205210820AC
:10591000FDF740F80820FDF72DF8002205210920A9
:10592000FDF738F80920FDF725F807B000BD0000A5
:1059300030380240000802400000024000040240EB
:1059400010B50B480B4908600B4848600021094816
:105950008160C1604FF4804101610021416181613A
:10596000C1610162FCF7E8FD08B1FCF779F810BDF0
:10597000005400400C040020801A060010B50748AF
:1059800007490860062048604FF47A610448816046
:10599000FCF716FF08B1FCF763F810BD00300040BB
:1059A0006004002010B50F480F4908604FF4827062
:1059B000486000210C488160C16002210161012121
:1059C0004161490281610821C16100210162416296
:1059D00081620A21C162FDF799FC08B1FCF740F829
:1059E00010BD0000003800406C04002010B50948CC
:1059F000094908606320486000210748816031211F
:105A0000C160002101618161FDF7DCFE08B1FCF796
:105A100027F810BD001C00409C05002000B58BB08D
:105A2000242102A8FAF796FC0020009001904FF084
:105A300080401949086000204860002116488160B4
:105A400044F62061C1600021016181610320029060
:105A5000002003900120049000200590062006906D
:105A600000200790012008900020099006200A904D
:105A700002A90948FEF715F808B1FBF7F1FF00206D
:105A80000090019069460448FDF742FE08B1FBF71B
:105A9000E7FF0BB000BD0000C404002000B587B0D4
:105AA0000020039004900590069001900290144805
:105AB0001449086063204860002112488160312148
:105AC000C1600021016180218161FDF77BFE08B189
:105AD000FBF7C6FF4FF48050039003A90948FDF778
