:020000040800F2
:10000000505400209D020008F15F0008F1480008EC
:10001000F15D00083F0400084D6D0008000000007D
:10002000000000000000000000000000DD010008EA
:10003000430500080000000039020008496200087A
:10004000B7020008B7020008B7020008B7020008AC
:10005000B7020008B70200083D140008B702000804
:100060004714000851140008B7020008B70200083E
:10007000B7020008B7020008B7020008B70200087C
:10008000B7020008B7020008B7020008B70200086C
:10009000B7020008B7020008B7020008B70200085C
:1000A000B70200082D630008B7020008B702000875
:1000B0003D6300084D630008B702000805490008C9
:1000C000F5480008B7020008B7020008B7020008A8
:1000D00099600008D16B0008B7020008E16B0008C6
:1000E000B7020008B7020008B70200085D63000805
:1000F0008D6300087D6300086D630008B702000887
:1001000000000000B7020008B7020008B7020008AC
:100110000000000000000000B7020008B70200085D
:10012000B7020008B702000845040008B70200083B
:10013000B7020008B7020008B7020008B7020008BB
:10014000B7020008B7020008B7020008B7020008AB
:10015000B7020008B702000855040008B7020008FB
:10016000B7020008B702000800000000000000000D
:10017000000000000000000000000000000000007F
:10018000B7020008B70200080000000000000000ED
:10019000B7020008B70200080000000000000000DD
:1001A000000000000000000000000000000000004F
:1001B000B70200080000000000000000B7020008BD
:1001C000B7020008DFF810D000F0FCF80048004744
:1001D0009B740008AFF30080505400202C4B19682A
:1001E0000868B0E8F04F80F30988BFF36F8F4FF0D5
:1001F000000080F311887047000000000848006884
:10020000006880F308884FF0000080F3148862B61D
:1002100061B6BFF34F8FBFF36F8F00DF00BF00BF2A
:1002200008ED00E0DFF80C00016841F470010160A6
:10023000704700BF88ED00E0EFF30980BFF36F8FD8
:10024000134B1A681EF0100F08BF20ED108A20E92A
:10025000F04F106009B44FF0500080F31188BFF3E5
:100260004F8FBFF36F8F08F0E1FD4FF0000080F378
:10027000118809BC19680868B0E8F04F1EF0100F2B
:1002800008BFB0EC108A80F30988BFF36F8F704706
:10029000A0000020EFF3058070470000064880476B
:1002A00006480047FEE7FEE7FEE7FEE7FEE7FEE75B
:1002B000FEE7FEE7FEE7FEE719630008C501000858
:1002C0002DE9F05F0546002092469B46884606468B
:1002D000814640241BE0284641464746224600F01E
:1002E00061F853465A46C01A914110D31146184638
:1002F000224600F048F82D1A67EB01084F462246C7
:100300000120002100F03FF817EB00094E41201EAC
:10031000A4F10104DFDC484631462A464346BDE8E5
:10032000F09F40EA01039B0703D009E008C9121FB0
:1003300008C0042AFAD203E011F8013B00F8013B9F
:10034000521EF9D27047D2B201E000F8012B491ECB
:10035000FBD270470022F6E710B513460A46044662
:100360001946FFF7F0FF204610BD10B5002200E04F
:10037000521C835C8C5CA34201D1002BF8D1D8B213
:10038000E1B2401A10BD202A04DB203A00FA02F143
:10039000002070479140C2F1200320FA03F3194373
:1003A00090407047202A04DB203A21FA02F0002115
:1003B000704721FA02F3D040C2F120029140084375
:1003C00019467047064C074D06E0E06840F001030F
:1003D00094E8070098471034AC42F6D3FFF7F6FED6
:1003E00004A7000824A7000870B58C1810F8015B5A
:1003F00015F0070301D110F8013B2A1106D110F8BE
:10040000012B03E010F8016B01F8016B5B1EF9D1C1
:100410002B0705D40023521E0DD401F8013BFAE747
:1004200010F8013BCB1A921C03E013F8015B01F8B2
:10043000015B521EF9D5A142D8D3002070BD00BF88
:10044000FEE7000010B5024801F01AFC10BD0000E4
:100450004404002010B5024801F012FC10BD000059
:10046000A40400200146087810381823B0FBF3F2EA
:100470000848805CC865032A05D908686FF309003D
:10048000001D886503E008686FF309008865886DC2
:1004900070470000BEA50008014600208A6A8B69EB
:1004A000CBB932B1012A0DD0022A03D0032A10D1D0
:1004B0000EE000BFCB6A03F08073B3F1807F00D100
:1004C000012007E0CB6AB3F1C07F00D1012001E039
:1004D00000E000BF34E08B69B3F5005F1AD132B1A0
:1004E000012A07D0022A03D0032A11D10AE000BF53
:1004F00001200EE0CB6A03F08073B3F1807F00D15E
:10050000012006E0CB6AB3F1C07F00D1012000E0FA
:1005100000BF15E032B1012A05D0022A04D0032A17
:100520000CD103E000BF00BF012008E0CB6A03F05C
:100530008073B3F1807F00D1012000E000BF00BFD5
:10054000704770478AB000260025002400BF0120B4
:1005500007F03EF83223002201A9FA48006807F0AC
:100560008DF8C6B2002EF2D10020F74908709DF830
:1005700004008DF818009DF805008DF81900002082
:100580008DF81A008DF81B009DF80A008DF81E00EA
:100590009DF80B008DF81F009DF80B0005287BD0FF
:1005A00006DC012809D0022877D0032876D138E16B
:1005B000062874D01028F9D1E8E39DF80C00202813
:1005C0006ED19DF80D00052854D006DC052868D2B0
:1005D000DFE800F0782D4D4E4F00062870D0092836
:1005E0006FD00A2802D064285BD100E0B5E000207B
:1005F0008DF81C0005208DF81D0001208DF82000CD
:100600008021D24801F006FE012802D18DF8210098
:1006100007E08021CD4801F0FDFD10B900208DF8E4
:1006200021000A2206A9012008F00EF895E000201A
:100630008DF81C0005208DF81D0001208DF820008C
:100640008021C24801F0E6FD40B90421C04801F014
:10065000E1FD18B900208DF8210002E001208DF89D
:1006600021000A2206A9012007F0EEFF75E074E0E0
:1006700073E072E000208DF81C0005208DF81D004D
:1006800001208DF820008021B04801F0C3FD012831
:1006900008D18DF821000DE0C5E260E0FEE3FEE345
:1006A0005CE059E08021A94801F0B4FD10B90020B8
:1006B0008DF821000A2206A9012007F0C5FF4CE0B1
:1006C00019E028E000208DF81C0005208DF81D00A1
:1006D00001208DF820009F480078012802D18DF874
:1006E000210002E000208DF821000A2206A9012045
:1006F00007F0AAFF31E000208DF81C0005208DF8DE
:100700001D0001208DF820008DF821000A2206A985
:1007100007F09AFF21E000208DF81C0006208DF8DC
:100720001D0001208DF820000102894801F072FDB2
:10073000012802D18DF8210008E04FF4807184482F
:1007400001F068FD10B900208DF821000A2206A9E9
:10075000012007F079FF00E000BF00BF62E2002047
:100760008DF81C0004208DF81D0001208DF820005C
:100770009DF80C00C8B99DF80D00012815D1012184
:10078000734801F047FD38B901208DF821000A2295
:1007900006A907F059FF43E000208DF821000A2246
:1007A00006A9012007F050FF3AE09DF80C00C8B9F7
:1007B0009DF80D00032815D10821654801F02AFD98
:1007C00038B901208DF821000A2206A907F03CFF64
:1007D00026E000208DF821000A2206A9012007F05A
:1007E00033FF1DE09DF80C00C8B99DF80D000428EA
:1007F00015D10421564801F00DFD38B901208DF8BE
:1008000021000A2206A907F01FFF09E000208DF849
:1008100021000A2206A9012007F016FF00E000BF10
:100820009CE79DF80F009DF80E1040EA01204FF65E
:10083000FF7101EA400400208DF81C00E01CC0B2EA
:100840008DF81D009DF80C00012878D1022C77D17D
:100850009DF80D004A280DD1E0B28DF8200000204F
:100860008DF821008DF822000B2206A9012007F047
:10087000EBFED7E19DF80D004E280DD1E0B28DF8CA
:10088000200000208DF821008DF822000B2206A9FF
:10089000012007F0D9FEC5E19DF80D0088B9E0B24E
:1008A0008DF820002C480088000A8DF821002A4885
:1008B00000788DF822000B2206A9012007F0C4FE63
:1008C000B0E19DF80D00302811D1E0B28DF8200084
:1008D00022480088000A8DF82100204800788DF811
:1008E00022000B2206A9012007F0AEFE9AE19DF836
:1008F0000D0032280DD1E0B28DF8200000208DF8D7
:1009000021008DF822000B2206A9012007F09CFE91
:1009100088E19DF80D007728ABD1E0B28DF820007A
:100920000F48007801281DD100208DF821000120FA
:100930008DF822000B2206A907F086FE72E161E025
:100940001EE00000840000204E0000200000024055
:1009500000080240470000201C0000204A00002040
:1009600045000020FC480078002894D18DF8210033
:100970008DF822000B2206A9012007F065FE51E147
:10098000042C88D19DF80D002C281BD1E0B28DF8E5
:100990002000F2480068000E8DF82300EF48006840
:1009A000000C8DF82400ED480088000A8DF8210025
:1009B000EA4800788DF822000D2206A9012007F0F0
:1009C00043FE2FE19DF80D002E288FD1E0B28DF867
:1009D0002000E3480068000E8DF82300E04800681E
:1009E000000C8DF82400DE480088000A8DF82100F4
:1009F000DB4800788DF822000D2206A9012007F0BF
:100A000023FE0FE19DF80C00002897D1022C23D182
:100A10009DF80D0020280DD1E0B28DF820000020B7
:100A20008DF821008DF822000B2206A9012007F085
:100A30000BFEF7E09DF80D009628A0D1E0B28DF8EE
:100A4000200000208DF821008DF822000B2206A93D
:100A5000012007F0F9FDE5E0042C90D19DF80D0090
:100A600064281BD1E0B28DF82000BE480068000E5B
:100A70008DF82300BB480068000C8DF82400B948AD
:100A80000088000A8DF82100B64800788DF8220011
:100A90000D2206A9012007F0D7FDC3E09DF80D0047
:100AA000682814D1E0B28DF82000280E8DF82300BC
:100AB000280C8DF82400280A8DF82100E8B28DF862
:100AC00022000D2206A9012007F0BEFDAAE09DF834
:100AD0000D0078281BD1E0B28DF82000A2480068F4
:100AE000000E8DF82300A0480068000C8DF824004B
:100AF0009D480088000A8DF821009B4800788DF8F9
:100B000022000D2206A9012007F09EFD8AE09DF833
:100B10000D007A2811D1E0B28DF8200000208DF868
:100B200023008DF824008DF821008DF822000D227D
:100B300006A9012007F088FD74E09DF80D007C28CF
:100B40001BD1E0B28DF8200088480068000E8DF8B7
:100B5000230086480068000C8DF824008348008834
:100B6000000A8DF82100814800788DF822000D22BE
:100B700006A9012007F068FD54E09DF80D007E28CD
:100B800011D1E0B28DF8200000208DF821008DF801
:100B900022008DF823008DF824000D2206A90120E3
:100BA00007F052FD3EE09DF80D0080281BD1E0B219
:100BB0008DF820006E480068000E8DF823006C4808
:100BC0000068000C8DF8240069480088000A8DF840
:100BD0002100674800788DF822000D2206A9012027
:100BE00007F032FD1EE09DF80D0087281AD1E0B213
:100BF0008DF820005F480068000E8DF823005D48E6
:100C00000068000C8DF824005A480088000A8DF80E
:100C10002100584800788DF822000D2206A90120F5
:100C200007F012FDE5E300208DF81C0006208DF88A
:100C30001D009DF80C008DF820009DF80D008DF82A
:100C400021009DF80C0020287DD19DF80D0015286D
:100C50007AD2DFE800F0FE0B9CD3FDFCFBFA79F9B9
:100C60007979797979F879797979F7009DF80E00B1
:100C7000FF2857D10421404801F0CCFA01286AD15D
:100C800080213E4801F0C6FA80BBFF208DF822008B
:100C900000208DF823000C2206A9012007F0D4FCC7
:100CA0000020374908702C49087030490860082135
:100CB000314801F0AFFAD0B900208DF80000294882
:100CC00000684FF47A71B0FBF1F0000A8DF8010072
:100CD00024480068B0FBF1F0C0B28DF80200002398
:100CE000012269462748006806F056FD33E00120DE
:100CF0008DF800001B4800684FF47A71B0FBF1F0EA
:100D0000000A8DF8010017480068B0FBF1F0C0B28E
:100D10008DF802000023012269461A48006806F097
:100D20003BFD18E09DF80E00A8B900208DF82200C8
:100D30008DF823000C2206A9012007F085FC002273
:100D400080210E4801E0EDE1EAE101F075FA0021B1
:100D50000D4803F0DDF9E4E14500002034000020F7
:100D60003000002020000020240000202800002067
:100D70002C0000201C00002000080240000002405F
:100D8000420000208C0000202C03002037E29DF858
:100D90000E00FF2824D18DF8220000208DF82300BA
:100DA0000C2206A9012007F04FFC00208DF800005E
:100DB000FA4800684FF47A71B0FBF1F0000A8DF840
:100DC0000100F6480068B0FBF1F0C0B28DF80200F7
:100DD000002301226946F248006806F0DDFC0CE0C1
:100DE00000208DF822008DF823000C2206A9012096
:100DF00007F02AFC0320EB49087092E19DF80E00F1
:100E0000FF282DD18DF8220000208DF823000C2220
:100E100006A9012007F018FC01208DF80000DF482A
:100E200000684FF47A71B0FBF1F0000A8DF8010010
:100E3000DA480068B0FBF1F0C0B28DF80200002380
:100E4000012207E0D2E056E135E11FE101E154E083
:100E500014E0E3E06946D248006806F09DFC0CE02F
:100E600000208DF822008DF823000C2206A9012015
:100E700007F0EAFB0320CB49087052E19DF80E0011
:100E8000FF282CD18DF8220000208DF823000C22A1
:100E900006A9012007F0D8FB802101E0A8E242E189
:100EA000C14801F0B7F938BB00208DF80000BB48FD
:100EB00000684FF47A71B0FBF1F0000A8DF8010080
:100EC000B6480068B0FBF1F0C0B28DF80200002314
:100ED00001226946B248006806F05EFC0CE0002082
:100EE0008DF822008DF823000C2206A9012007F0BE
:100EF000ABFB0320AB49087013E19DF80E00FF28FF
:100F000066D18DF8220000208DF823000C2206A95E
:100F1000012007F099FB8021A34801F07BF968BB11
:100F2000A248007850BBA248006800EB8000A149AD
:100F30000968B1EB400F07D89F4890ED000AB5EE65
:100F4000C00AF1EE10FA1AD200208DF80000934882
:100F500000684FF47A71B0FBF1F0000A8DF80100DF
:100F60008E480068B0FBF1F0C0B28DF8020000239B
:100F7000012269468A48006806F00EFC35E08C487C
:100F8000006800EB80008B490968B1EB400F2CD260
:100F900004218A4801F03EF9012826D18DF800008D
:100FA0007E4800684FF47A71B0FBF1F0000A8DF8CA
:100FB00001007A480068B0FBF1F0C0B28DF8020081
:100FC0000023012269467648006806F0E5FB0CE044
:100FD00000208DF822008DF823000C2206A90120A4
:100FE00007F032FB03206F4908709AE09DF80E006D
:100FF000FF2808D18DF8220000208DF8230003205F
:101000006849087004E000208DF822008DF8230064
:101010000C2206A9012007F017FB82E09DF80E00C4
:10102000FF2809D1012066490870FF208DF82200B1
:1010300000208DF8230006E00020614908708DF83B
:1010400022008DF823000C2206A9012007F0FCFAEB
:1010500067E09DF80E00FF280AD18DF822000020DD
:101060008DF823000C2206A9012007F0EDFA0CE010
:101070009DF80E0048B900208DF822008DF823005D
:101080000C2206A9012007F0DFFA4AE09DF80E00C5
:10109000FF2805D18DF8220000208DF8230004E000
:1010A00000208DF822008DF823000C2206A90120D3
:1010B00007F0CAFA35E09DF80E00FF280AD18DF836
:1010C000220000208DF82300012211023B4801F08C
:1010D000B3F80AE000208DF822008DF823000022EA
:1010E0004FF48071354801F0A7F80C2206A90120C1
:1010F00007F0AAFA15E09DF80E00FF2805D18DF83B
:10110000220000208DF8230004E000208DF822004A
:101110008DF823000C2206A9012007F095FA00E0C3
:1011200000BF00BF65E100208DF81C0006208DF88F
:101130001D009DF80C008DF820009DF80D008DF825
:1011400021009DF80E008DF822009DF80F008DF80B
:1011500023009DF80C00012850D19DF80D004A286D
:1011600005D10C2206A9012007F06EFA46E09DF891
:101170000D004E2805D10C2206A9012007F064FAC3
:101180003CE09DF80D0040BB9DF80E0010B99DF8A5
:101190000F00C8B101200B49087018E0240000209E
:1011A0008C00002049000020000002404200002086
:1011B0001C00002028000020180000200008024029
:1011C00047000020430000200020904908700C22B6
:1011D00006A9012007F038FA10E09DF80D0030282C
:1011E0000CD19DF80F009DF80E1040EA01208849AF
:1011F00008800C2206A9012007F026FAF9E0002059
:101200008DF81C0006208DF81D009DF80C008DF84F
:1012100020009DF80D008DF821009DF80E008DF83E
:1012200022009DF80F008DF823009DF80C0088BB6C
:101230009DF80D00642815D19DF812009DF811103D
:1012400040EA01209DF8131040EA01609DF8141057
:1012500040EA01406F4908600C2206A9012007F00E
:10126000F3F9C4E09DF80D00682814D19DF8120030
:101270009DF8111040EA01209DF8131040EA01602A
:101280009DF8141040EA01450C2206A9012007F040
:10129000DBF9ACE06CE09DF80D00782815D19DF8E5
:1012A00012009DF8111040EA01209DF8131040EA49
:1012B00001609DF8141040EA0140574908600C2273
:1012C00006A9012007F0C0F991E09DF80D007A28E9
:1012D00005D10C2206A9012007F0B6F987E09DF898
:1012E0000D007C2820D101204C4908709DF8120087
:1012F0009DF8111040EA01209DF8131040EA0160AA
:101300009DF8141040EA014045490860084600680D
:1013100020B9002043490870434908700C2206A9EF
:10132000012007F091F962E09DF80D007E2805D1BB
:101330000C2206A9012007F087F958E09DF80D005E
:10134000802854D19DF812009DF8111040EA012028
:101350009DF8131040EA01609DF8141040EA014026
:10136000324908600C2206A9012007F06DF93EE021
:101370009DF80C0001283AD19DF80D002C281DD1B4
:101380009DF812009DF8111040EA01209DF81310FD
:1013900040EA01609DF8141040EA014024490860C9
:1013A000084690ED000AB8EE400A224880ED000A97
:1013B0000C2206A9012007F047F918E09DF80D005E
:1013C0002E2814D19DF812009DF8111040EA01203A
:1013D0009DF8131040EA01609DF8141040EA0140A6
:1013E000154908600C2206A9012007F02DF900E03C
:1013F00000BF00BF002006900790089009901421BC
:1014000001A8FEF7A7FFFFF7A2B8000043000020E5
:101410004A00002020000020240000204600002078
:101420002800002042000020450000202C00002061
:10143000340000203C0000203000002010B50120C6
:1014400000F0FCFD10BD10B5042000F0F7FD10BD4C
:1014500010B5082000F0F2FD10BD00001CB5FEA183
:1014600003C9CDE90001002400BF012006F0B0F857
:10147000FB4800780128F8D10020F94908700421C0
:10148000F84800F0C7FE40B99FEDF70AF74880ED35
:10149000000A0020F6490860CFE20421F14800F07C
:1014A000B9FE0128F8D1F34890ED000AB8EEC00A61
:1014B000DFEDF10A80EE201AB1EE040A21EE000AF7
:1014C000EA4880ED000A90ED000ADFEDEC0A20EE1C
:1014D000200ABCEEC00AE64880ED000AE848007821
:1014E0000128D9D1E74800780128D5D18021DD48ED
:1014F00000F090FE002874D1E3480078002871D1F4
:10150000DB48006800EB8000E0490968B1EB400F60
:1015100068D9DF480068002813D9DD48006842F226
:10152000107188420DD8D94800686438D0490968DC
:1015300001EB8101B0EB410F03D80120D2490870C3
:101540007BE2D348006842F21071884213D9D04838
:101550000068490088420ED8CC480068A0F5167093
:10156000C349096801EB8101B0EB410F03D80120A9
:10157000C549087061E2C648006844F620618842A7
:1015800014D9C348006847F2305188420ED8BF488A
:101590000068A0F24650B649096801EB8101B0EB42
:1015A000410F03D80120B849087046E2B8480068E6
:1015B00047F23051884216D9B548006849F6404193
:1015C000884210D8B1480068A0F69210A84909686E
:1015D00001EB8101B0EB410F05D80120AA49087049
:1015E0002BE2C4E09FE0AA48006849F640418842E7
:1015F00014D9A74800684CF2503188420ED8A3484D
:101600000068A0F6A6609A49096801EB8101B0EB79
:10161000410F03D801209C4908700EE29C480068E5
:101620004CF25031884215D9994800684EF6602135
:1016300088420FD895480068A0F5A8504A388C49D0
:10164000096801EB8101B0EB410F03D801208E49FD
:101650000870F2E18E4800684EF66021884214D985
:101660008B4800688B4988420FD888480068A0F5ED
:10167000E050E8387E49096801EB8101B0EB410F89
:1016800003D8012080490870D7E18148006881496A
:10169000884214D97E4800687F4988420FD87B4829
:1016A0000068A0F51450B2387149096801EB810156
:1016B000B0EB410F03D8012073490870BDE17448B5
:1016C00000687549884214D9714800687349884296
:1016D0000FD86E480068A0F540507038644909681A
:1016E00001EB8101B0EB410F03D80120664908707E
:1016F000A3E167480068694988428ED96448006858
:101700006749884289D861480068A0F56C509238D2
:101710005749096801EB8101B0EB410F99D80120CD
:101720005949087089E15848007802280CD150487E
:10173000006800EB800055490968B1EB400F03D801
:1017400004205149087078E14F48007800289BD167
:101750004748006800EB80014C48006800F57A704B
:10176000B0EB410F90D803204749087065E1802114
:101770003C4800F04FFD012886D1434800780028FE
:1017800068D13B48006800EB800040490968B1EB34
:10179000400F5FD23E480068002813D93C480068DB
:1017A00042F2107188420DD83148006800EB800188
:1017B000364800686430B0EB410F03D8012032494D
:1017C00008703AE13248006842F21071884213D939
:1017D0002F480068490088420ED82548006800EB71
:1017E00080012A48006800F51670B0EB410F03D362
:1017F00001202549087020E12548006844F6206151
:10180000884214D92248006847F2305188420ED8E5
:101810001748006800EB80011C48006800F2465041
:10182000B0EB410F03D301201749087005E11848B8
:10183000006847F2305188423DD91548006849F6A2
:101840004041884237D80A48006800EB80010F48C1
:10185000006827E0CFE00000CFAE000000000000ED
:101860004400002000080240000000001800002092
:101870001C0000205000002000007A440000C842F4
:1018800045000020460000204900002028000020DC
:10189000240000207011010080380100905F0100D9
:1018A000A086010000F69210B0EB410F03D3012097
:1018B0008C490870C1E08C48006849F64041884274
:1018C00014D9894800684CF2503188420ED88748B4
:1018D000006800EB80018648006800F6A660B0EB67
:1018E000410F03D301207F490870A6E07E480068BD
:1018F0004CF25031884215D97B4800684EF6602181
:1019000088420FD87948006800EB80007849096860
:1019100041F24A521144B1EB400F03D30120714907
:1019200008708AE0704800684EF66021884214D939
:101930006D4800686F4988420FD86C48006800EB1A
:1019400080006B49096841F6E8421144B1EB400F51
:1019500003D30120634908706FE06348006865495C
:10196000884214D960480068634988420FD85F48AC
:10197000006800EB80005E49096842F2B2521144EF
:10198000B1EB400F03D301205649087055E056488B
:1019900000685949884214D9534800685749884219
:1019A0000FD85248006800EB80005149096843F2A3
:1019B00070021144B1EB400F03D301204949087074
:1019C0003BE0494800684D49884236D9464800689E
:1019D0004B49884231D84548006800EB80004449B3
:1019E000096843F692321144B1EB400F25D3012030
:1019F0003C49087021E03B48007802280CD13B4864
:101A0000006800EB80003A490968B1EB400F03D34E
:101A100004203449087010E03248007868B934482E
:101A20000068A0F57A703149096801EB8101B0EBDB
:101A3000410F02D303202B49087032480078012857
:101A40001CD1601CC4B20A2C18DB00242748007883
:101A50008DF8020025480088000A8DF8030023480D
:101A60000068000C8DF8040020480068000E8DF816
:101A7000050006226946022006F0E6FD22480078AD
:101A800001287FF4F2AC214890ED000A2048D0ED07
:101A9000000A1FED871A10EE810ABCEEC00A1D482D
:101AA00080ED000A1C48006800EB800019490968B5
:101AB000B1EB400FFFF4D9AC1748006800EB800091
:101AC000400000EE100AB8EE400A1048D0ED000ABF
:101AD00030EE200A80ED000A00200B4908700D4905
:101AE0000860C2E449000020240000201C000020FF
:101AF000280000207011010080380100905F010073
:101B0000A086010043000020480000203C00002087
:101B100018000020380000203000002072B600BFFE
:101B2000FEE7000008B505F017F91149002005F09F
:101B3000E3FA01208DF800008DF8030000208DF8F5
:101B4000020001208DF8010069460A2005F0FCFA28
:101B500000BF4FF4FB71012005F0C2FC41F294116B
:101B6000022005F0BDFC0A2005F032FDF1E700007F
:101B70000000002000BF012005F02AFD0648007883
:101B80000128F8D100228021044800F055FB0021F3
:101B9000034802F0BDFAEEE74200002000000240D8
:101BA0002C03002070B50446A56D00F04BFB0646E3
:101BB00094F83500022808D08020606500BF00201E
:101BC00084F8340000BF012070BD2068006820F058
:101BD0001600216808602068406920F080002168B4
:101BE0004861206C08B9A06C28B12068006820F01A
:101BF0000800216808602068006820F00100216862
:101C0000086010E000F01EFB801B05280BD9202087
:101C10006065032084F8350000BF002084F834009C
:101C200000BF0320D0E72068006800F00100002812
:101C3000E8D194F85C103F208840A860012084F827
:101C4000350000BF002084F8340000BF00BFBBE7B0
:101C5000014691F83500022803D080204865012014
:101C60007047052081F835000868006820F0010001
:101C70000A6810600020F3E7014691F835007047CC
:101C8000F8B50446002000908C4800684FF41651C7
:101C9000B0FBF1F7A56D2E6894F85C100820884021
:101CA000304098B12068006800F0040070B12068EE
:101CB000006820F004002168086094F85C10082097
:101CC0008840A860606D40F00100606594F85C1089
:101CD00001208840304068B12068406900F08000F1
:101CE00040B194F85C1001208840A860606D40F01D
:101CF0000200606594F85C1004208840304068B1B0
:101D00002068006800F0020040B194F85C100420E4
:101D10008840A860606D40F00400606594F85C1035
:101D200010208840304078B32068006800F0080038
:101D300050B394F85C1010208840A86020680068B8
:101D400000F4802080B12068006800F4002028B9E9
:101D5000206CC8B12046216C884715E0A06C98B172
:101D60002046A16C88470FE02068006800F480706E
:101D700028B92068006820F0080021680860206CFD
:101D800010B12046216C884794F85C1020208840D0
:101D90003040002865D02068006800F0100000285E
:101DA0005FD094F85C1020208840A86094F835003B
:101DB000052828D12068006820F0160021680860F6
:101DC0002068406920F0800021684861206C08B9D3
:101DD000A06C28B12068006820F008002168086025
:101DE00094F85C103F208840A860012084F83500FA
:101DF00000BF002084F8340000BF206D10B12046E1
:101E0000216D8847F8BD2068006800F4802080B10B
:101E10002068006800F4002028B9606C10B12046EA
:101E2000616C88471DE0E06BD8B12046E16B8847C4
:101E300017E02068006800F4807068B920680068C6
:101E400020F0100021680860012084F8350000BFF0
:101E5000002084F8340000BFE06B10B12046E16B35
:101E60008847606D38B3606D00F00100F0B1052067
:101E700084F835002068006820F0010021680860BF
:101E800000BF0098401C0090B84200D905E02068CF
:101E9000006800F001000028F3D100BF012084F8A1
:101EA000350000BF002084F8340000BFE06C10B1A2
:101EB0002046E16C884700BFA4E700009C0000209A
:101EC0002DE9F0410446002500F0BCF9074614B99D
:101ED0000120BDE8F081606A00B100BF022084F8F3
:101EE000350000BF002084F8340000BF206800687F
:101EF00020F00100216808600AE000F0A3F9C01B8F
:101F0000052805D920206065032084F83500E0E726
:101F10002068006800F001000028EED12068056804
:101F200021480540D4E901010843E16808432169DB
:101F3000084361690843A1690843E1690843216ACC
:101F400008430543606A042803D1D4E90B01084320
:101F50000543206805602068456925F00705606A2B
:101F60000543606A04280DD1A06A0543E06A48B1C0
:101F70002046FEF791FA28B140206065012084F8E0
:101F80003500A6E7206845612046FEF76BFA064655
:101F900094F85C103F208840B0600020606501200C
:101FA00084F83500002094E73F8010F010B5044617
:101FB000082C06D101201749087000201649087026
:101FC00027E0042C1DD1012013490870002013497B
:101FD000088000228021124800F02EF900211148CB
:101FE00002F096F800201049086001200F4908709F
:101FF0009FED0F0A0F4880ED000A00200E4908608F
:1020000007E0012C05D10120024908700020024997
:10201000087010BD42000020450000204C00002048
:10202000000002402C03002050000020440000204B
:1020300000000000180000201C00002010B504461D
:1020400004480068204020B1024804602046FFF7A1
:10205000ADFF10BD143C0140F8B503460A4600250B
:10206000002400200021C2E0012606FA01F51668CE
:1020700006EA0504AC4274D1167906F00306012E77
:1020800004D0167906F00306022E13D198684F008B
:102090000326BE40B0434F00D668BE403043986030
:1020A000586801268E40B0431679C6F300168E405C
:1020B00030435860167906F00306032E09D0D8681D
:1020C0004F000326BE40B0434F009668BE403043E9
:1020D000D860167906F00306022E13D1CF0803F15B
:1020E000200656F827004E07F70E0F26BE40B043D5
:1020F0004F07FF0E1669BE403043CF0803F120069C
:1021000046F8270018684F000326BE40B0431679F2
:1021100006F003064F00BE4030431860566806F4D0
:102120004036002E62D000BF00260096324E366840
:1021300046F48046304F3E603E46366806F48046A0
:10214000009600BF00BF2D4E8F0856F827008E075F
:10215000370F0F26BE40B043294EB34202D10026AE
:1021600010E043E0274EB34201D101260AE0264E9B
:10217000B34201D1022605E0244EB34201D1032629
:1021800000E007268F073F0FBE4030431B4E8F08ED
:1021900046F827001E4E3068A043566806F48016A5
:1021A00006B120431A4E3060361D3068A043566891
:1021B00006F4001606B12043154E361D3060144E4D
:1021C000361F3068A043566806F4003606B1204337
:1021D0000F4E361F3060361F3068A043566806F435
:1021E000803606B120430A4E083E3060491C102953
:1021F000FFF43AAFF8BD000044380240083801400F
:10220000000002400004024000080240000C0240AE
:10221000083C0140024613690B400BB1012000E06D
:102220000020704710B5426921EA020302EA010466
:1022300043EA0443836110BD0AB1816101E00B04EC
:1022400083617047014800687047000090000020DB
:10225000704770472DE9F84F0446206847692068A9
:10226000D0F80480002594F83E90C7F3002040B1D8
:10227000C8F3002028B145F001056FF48070216893
:102280004861C7F3402040B1C8F3002028B145F0B1
:1022900002056FF4007021684861C7F3802070B3B5
:1022A000C8F3002058B3CA46B4F82AB094F83D6089
:1022B000206B0090BAF1200F0FD1BBF1000F0CD1B1
:1022C000212E06D0292E04D0282E06D100982128B0
:1022D00003D1204603F0D4F811E06FF48060216848
:1022E000486145F00405B9F1100F02D0B9F1400F73
:1022F00005D12068006840F4007021680860C7F3C9
:10230000C02040B1C8F3002028B145F008056FF4A3
:102310000060216848612DB1206C2843206420466C
:1023200002F082FBBDE8F88F2DE9F04705464FF03B
:10233000000928684668D5F82CA095F83E7095F8F5
:102340003D80102F01D0402F75D12868D0F818900B
:102350002868446904F0010060B9BAF52A0F02D078
:10236000BAF12A4F01D1012000E00020012801D15B
:10237000BDE8F08704F0010048B1C6F3402030B159
:10238000284602F0C7FA284602F034FFB7E0C4F34B
:10239000C00030B1C6F3402018B1284602F0E1FD7C
:1023A000ADE0C4F3400030B1C6F3402018B1284678
:1023B00002F0ECFDA3E0C9F3800040B32868406858
:1023C00000F40060B0F5006FE0D0C4F3C01048B175
:1023D000C6F3802030B1C4F3800018B9284602F05B
:1023E00054FD8CE0C4F380000028CFD0C6F3402019
:1023F0000028CBD0B8F1210F03D1284602F0F5FC1C
:102400007DE0402F7BD1284602F043FF77E028682B
:10241000406800F40060B0F5006F70D0C4F3801025
:1024200050B1C6F3802038B1C4F3800020B92846EB
:1024300002F063FC63E00BE0C4F3800000285ED090
:10244000C6F3402000285AD0284602F0C3FB56E0CD
:10245000286C10B12868446904E02868D0F8189006
:1024600028684469C4F3400060B1C6F3402048B115
:10247000286C10B12868D0F818904946284602F018
:10248000C7FF3CE0C4F3001030B1C6F3402018B1E0
:10249000284603F045F832E0B8F1210F02D0B8F138
:1024A000290F16D1C4F3C01048B1C6F3802030B153
:1024B000C4F3800018B9284602F087FF1FE0C4F378
:1024C0008000E0B1C6F34020C8B1284602F070FF9A
:1024D00015E0C4F3801048B1C6F3802030B1C4F3D6
:1024E000800018B9284602F040FF08E0C4F38000DD
:1024F00028B1C6F3402010B1284602F029FF00BFE2
:1025000036E7704770B504460CB9012070BD94F8E9
:102510003D0028B9002084F83C00204600F0E0F897
:10252000242084F83D002068006820F00100216824
:1025300008602068006840F4004021680860206856
:10254000006820F400402168086000F045FB054663
:102550005C496068884206D85B48854201D2012008
:1025600007E0002005E05948854201D2012000E043
:102570000020012800D1C9E75548B5FBF0F62068D6
:10258000406820F03F003043216848604D49606852
:10259000884201D8701C07E04FF4967070434FF4E6
:1025A0007A71B0FBF1F0401C2168096A21F03F010B
:1025B00008432168086243496068884214D8681E4D
:1025C00061684900B0FBF1F0401CC0F30B00042827
:1025D00001D204203DE0681E61684900B0FBF1F0C3
:1025E000401CC0F30B0034E0A06838B9681E616875
:1025F00001EB4101B0FBF1F0401C0AE0681E61688C
:1026000001EBC10202EB0111B0FBF1F0401C40F400
:102610008040C0F30B0008B901201AE0A06848B957
:10262000681E616801EB4101B0FBF1F0401CC0F392
:102630000B000CE0681E616801EBC10202EB0111A6
:10264000B0FBF1F0401CC0F30B0040F4804040F4BC
:1026500000402168C9694CF6FF7291430843216824
:10266000C861D4E9070108432168096821F0C00165
:10267000084321680860D4E9031008432168896889
:1026800048F2FF329143084321688860D4E905018C
:1026900008432168C96821F0FF0108432168C86028
:1026A0002068006840F00100216808600020206474
:1026B000202084F83D000020206384F83E0000BF05
:1026C00024E70000A086010080841E0000093D0070
:1026D00040420F00704770477047704770470000D6
:1026E00010B586B00446142101A8FDF733FE234936
:1026F000206888423FD100BF002000902048006839
:1027000040F002001E4908600846006800F0020020
:10271000009000BF00BFC020019012200290002056
:102720000390032004900420059001A91548FFF7A9
:1027300093FC00BF0020009011481030006840F466
:1027400000100F49103108600846006800F40010BE
:10275000009000BF00BF002205211F2000F000F9FB
:102760001F2000F0EDF800220521202000F0F8F8ED
:10277000202000F0E5F806B010BD00000054004035
:1027800030380240000402407047704770B504467C
:102790000CB9012070BD4CF6CC402168086045F2B0
:1027A000555021680860D4E9001048602168A0688D
:1027B0008860FFF747FD05460BE0FFF743FD401B30
:1027C000312806D92068C06800F0030008B1032052
:1027D000E0E72068C06800F003000028EDD14AF669
:1027E000AA20216808600020D4E701464AF6AA2002
:1027F0000A681060002070470348006803490978A0
:1028000008440149086070479000002098000020AB
:1028100010B50D48006840F400700B490860084688
:10282000006840F4806008600846006840F48070EA
:102830000860032000F0D2F80F2000F007F800F045
:1028400055F8002010BD0000003C0240F0B587B0F4
:1028500004460026002700BF002000901E480068A4
:1028600040F001001C4908600846006800F00100C3
:10287000009000BF00BF01A902A800F085F900F098
:10288000BBF906461548B6FBF0F0471E144815493B
:10289000086040F2E7311348C160476000210161E0
:1028A0008160816100F074FF054695B90D4800F024
:1028B000E5FF05466DB9192000F042F8102C07D24B
:1028C00000222146192000F04BF80748046000E080
:1028D0000125284607B0F0BD4438024040420F00B1
:1028E00000000140040500209400002008B500BF4E
:1028F000002000901148006840F480400F490860B3
:102900000846006800F48040009000BF00BF00BF90
:1029100000200090081F006840F08050091F0860E8
:102920000846006800F08050009000BF00BF002201
:102930000F21901E00F014F808BD0000443802403A
:1029400001460846002809DB00F01F0301229A40D7
:1029500043099B0003F1E023C3F8002100BF704747
:102960002DE9F05F80460D461646002704F046FB31
:10297000074639462A46334601F00700C0F1070AE8
:10298000BAF1040F02D94FF0040A01E0C0F1070ABE
:10299000D14600F1040ABAF1070F02D24FF0000A43
:1029A00001E0A0F1030AD4464FF0010A0AFA09FA3D
:1029B000AAF1010A0AEA020A0AFA0CFA4FF0010B1C
:1029C0000BFA0CFBABF1010B0BEA030B4AEA0B040D
:1029D0002146404604F01AFBBDE8F09F00BF00F01E
:1029E0000702064B19684FF6FF031940044B0B43CF
:1029F00043EA0221014B196000BF70470CED00E073
:102A00000000FA0570B504460D460CB9012070BDF2
:102A10005848006800F00700A84209D255490D70D7
:102A20000846006800F00700A84201D00120EEE748
:102A3000207800F0020002281DD1207800F0040068
:102A4000042805D14C48006840F4E0504A49086029
:102A5000207800F00800082805D14748006840F4B5
:102A60006040454908604448006820F0F000A168D3
:102A7000084341490860207800F00100A8B360686D
:102A8000012807D13C4808380068C0F34040B8B975
:102A90000120BCE76068022802D06068032807D1E3
:102AA000354808380068C0F3406048B90120AEE7F7
:102AB000314808380068C0F3400008B90120A6E793
:102AC0002D48006820F00300616808432A49086027
:102AD000FFF7B8FB064609E0FFF7B4FB801B41F2A5
:102AE0008831884202D9032091E707E02248006834
:102AF00000F00C006168B0EB810FEDD11D4800685B
:102B000000F00700A84209D91A490D70084600686C
:102B100000F00700A84201D0012078E7207800F0FB
:102B20000400042807D11448006820F4E050E1684C
:102B3000084311490860207800F00800082808D1EF
:102B40000D48006820F46040216940EAC1000A494C
:102B5000086000F061F808490968C1F30311074AE9
:102B6000515CC8400649086006480068FFF76EFEE1
:102B700000204CE7003C024008380240C6A500088F
:102B80009C000020940000200F2202600D4A126871
:102B900002F0030242600B4A126802F0F002826007
:102BA000084A126802F4E052C260064A126802F44F
:102BB0006042D2080261044A126802F007020A6009
:102BC0007047000008380240003C0240014800689D
:102BD000704700009C00002000B5FFF7F7FF044994
:102BE0000968C1F38221034A515CC84000BD00005E
:102BF00008380240D6A5000800B5FFF7E7FF0449F2
:102C00000968C1F34231034A515CC84000BD00006D
:102C100008380240D6A500082DE9F0470024002519
:102C20000026A1462548006800F00C0020B10428C9
:102C300005D008283AD105E0DFF8849039E0DFF8C4
:102C4000849036E01D48001F006800F03F041B48D8
:102C5000001F006800F4800078B11A481749091F66
:102C60000968C1F38811A0FB0170014622460023C8
:102C70003846FDF725FB05460EE011480F49091FB0
:102C80000968C1F38811A0FB0170014622460023A8
:102C90003846FDF715FB05460848001F0068C0F3DD
:102CA0000140401C4600B5FBF6F902E0DFF8109049
:102CB00000BF00BF4846BDE8F0870000083802406A
:102CC0000024F40040787D01F8B504460CB90120D9
:102CD000F8BD207800F00100002874D0F7480068A3
:102CE00000F00C0004280DD0F448006800F00C003F
:102CF000082813D1F148001F006800F48000B0F5E7
:102D0000800F0BD1ED4808380068C0F34040002820
:102D100059D06068002856D10120D9E700BF60680B
:102D2000B0F5803F08D1E5480838006840F48030AD
:102D3000E249083908601EE06068B0F5A02F0DD1A7
:102D4000DE480838006840F48020DC490839086013
:102D50000846006840F4803008600CE0D748083826
:102D6000006820F48030D5490839086008460068BA
:102D700020F48020086000BF606890B1FFF762FA1D
:102D8000054606E0FFF75EFA401B642801D90320E0
:102D90009EE7CA4808380068C0F340400028F1D0D8
:102DA00011E0FFF74FFA054606E0FFF74BFA401B2C
:102DB000642801D903208BE7C04808380068C0F3B5
:102DC00040400028F1D1207800F0020002285FD1B5
:102DD000BA48006800F00C0058B1B848006800F02C
:102DE0000C0008281CD1B548001F006800F48000C2
:102DF000B0B9B24808380068C0F3400020B1E068BC
:102E0000012801D0012063E7AC480838006820F0B1
:102E1000F800216940EAC100A8490839086037E094
:102E2000E06800B30120A6490860FFF70BFA0546E9
:102E300006E0FFF707FA401B022801D9032047E705
:102E40009E4808380068C0F340000028F1D09B4835
:102E50000838006820F0F800216940EAC10097496D
:102E60000839086014E0002095490860FFF7EAF986
:102E7000054606E0FFF7E6F9401B022801D90320CA
:102E800026E78E4808380068C0F340000028F1D1DA
:102E9000207800F0080008282CD16069A8B1012032
:102EA00088490860FFF7CEF9054606E0FFF7CAF942
:102EB000401B022801D903200AE780486C300068D3
:102EC000C0F340000028F1D014E000207D490860E4
:102ED000FFF7B8F9054606E0FFF7B4F9401B0228F2
:102EE00001D90320F4E675486C300068C0F3400057
:102EF0000028F1D1207800F00400042870D10027C8
:102F00006E483830006800F0805090B900BF002053
:102F100000906A483830006840F080506749383186
:102F200008600846006800F08050009000BF00BFB5
:102F300001276548006800F48070B0B962480068F5
:102F400040F4807060490860FFF77CF9054606E0B0
:102F5000FFF778F9401B022801D90320B8E65A4848
:102F6000006800F480700028F2D000BFA06801283B
:102F700008D152486830006840F001004F4968317C
:102F800008601DE0A06805280DD14C486830006835
:102F900040F004004949683108600846006840F084
:102FA000010008600CE045486830006820F001002E
:102FB0004249683108600846006820F00400086053
:102FC00000BFA068A8B1FFF73DF9054609E0FFF78B
:102FD00039F9401B41F28831884202D9032077E653
:102FE00026E0364868300068C0F340000028EED084
:102FF00013E0FFF727F9054608E0FFF723F9401B28
:1030000041F28831884201D9032061E62B486830BB
:103010000068C0F340000028EFD1012F07D12748F6
:103020003830006820F0805024493831086000BFF3
:10303000A069002850D02148006800F00C00082842
:1030400060D0A069022848D100201D490866FFF71A
:10305000F9F8054606E0FFF7F5F8401B022801D90C
:10306000032035E6154808380068C0F340600028A2
:10307000F1D1D4E907010843616A40EA81110122D4
:10308000A06AC2EB500041EA00412C20005D41EAF9
:1030900000613020005D41EA00700849091F0860A6
:1030A000012007490866FFF7CDF805460EE0FFF757
:1030B000C9F8401B022809D9032009E60838024054
:1030C00000004742800E47420070004028480068D8
:1030D000C0F340600028EAD048E000202549086697
:1030E000FFF7B0F8054606E0FFF7ACF8401B0228F2
:1030F00001D90320ECE51E480068C0F340600028B9
:10310000F2D133E0A069012800D1E1E51848001DA3
:103110000668A069012827D006F48001E069814291
:1031200022D106F03F01206A81421DD147F6C070CE
:103130003040616AB0EB811F16D106F440310122A4
:10314000A06AC2EB5000B1EB004F0DD106F07061E8
:103150002C20005DB1EB006F06D106F0E04130207D
:10316000005DB1EB007F01D00120B1E50020AFE5AB
:10317000003802400000474270470000F8B504469E
:103180002068466820688568C5F3801048B905F056
:10319000010030B1C6F3801018B12046216C884779
:1031A000F8BDC5F3400030B1C6F3C01018B12046D9
:1031B000616C8847F4E7C5F3401030B9C5F380105F
:1031C00018B9C5F3002000287CD0C6F340100028B1
:1031D0007DD0C5F38010F0B194F8510003280ED0D3
:1031E000606D40F00400606500BF00200090206822
:1031F000C068009020688068009000BF0BE000BFAE
:10320000002000902068C0680090206880680090CE
:1032100000BF00BFC4E7C5F3401088B1606D40F047
:103220000100606500BF0020009020688068009069
:103230002068006820F040002168086000BF00BFDF
:10324000C5F3002058B1606D40F00800606500BF14
:103250000020009020688068009000BF00BF606D73
:1032600078B32068406820F0E000216848600120C1
:1032700084F8510006F00200022802D006F0010096
:1032800008B32068406820F0030021684860E06CC3
:1032900050B11048E16C0865E06CFEF7D9FC18B13C
:1032A000606D40F040006065A06C50B10948A16CB1
:1032B0000865A06CFEF7CCFC18B1606D40F04000D2
:1032C000606503E003E02046FFF756FF68E700BFB4
:1032D00066E70000C960000810B504460CB901207B
:1032E00010BD606A38B96068B0F5827F00D105E032
:1032F0000021E16102E00021216161610021A16200
:1033000094F8510028B9002084F85000204600F0BD
:1033100047F8022084F851002068006820F040003F
:1033200021680860A08800F48270218901F40441BA
:103330000843A18901F400610843217C01F00201E6
:103340000843217D01F001010843218B01F4007144
:103350000843217F01F0380108432021095D01F075
:1033600080010843218D01F4005108432168086061
:103370000421A06901EA104094F8241001F0100122
:103380000843216848602068C06920F40060216813
:10339000C86100206065012084F8510000209FE78B
:1033A00010B586B00446142101A8FCF7D3FF1F49CD
:1033B0002068884238D100BF002000901C48006877
:1033C00040F480401A4908600846006800F48040D4
:1033D000009000BF00BF00BF0020009014481038CC
:1033E000006840F002001249103908600846006881
:1033F00000F00200009000BF00BF4FF46040019059
:1034000002200290002003900320049005200590E4
:1034100001A90848FEF720FE002205212420FFF71D
:103420009FFA2420FFF78CFA06B010BD0038004048
:1034300040380240000402402DE9FF5F0446884600
:1034400091461D460E9E012002900020019000BF73
:1034500094F85000012803D1022004B0BDE8F09F89
:10346000012084F8500000BFFEF7ECFE074694F8F8
:1034700051B060680390AA46BBF1010F0BD00398CE
:10348000B0F5827F04D1A06810B9BBF1040F02D05F
:1034900002200190DBE0B8F1000F03D0B9F1000F7A
:1034A00000D015B901200190D1E094F85100042812
:1034B00002D0052084F8510000206065C4F83890DF
:1034C000E587A587C4F83080E586A586206460641A
:1034D0002068006800F04000402805D0206800689F
:1034E00040F0400021680860E068B0F5006F4AD104
:1034F000606810B1BAF1010F09D1206B0088216812
:10350000C860206B801C2063E08E401EE08633E0A4
:103510002068806800F00200022810D1E08E70B1AF
:10352000029801280BD1206B00882168C860206BAD
:10353000801C2063E08E401EE08600200290206800
:10354000806800F0010068B1E08F58B12068C06861
:10355000A16B0880A06B801CA063E08F401EE087F9
:1035600001200290FEF76EFEC01BB04204D3701C17
:1035700010B1032001906AE0E08E0028C8D1E08FEE
:103580000028C5D14AE0606810B1BAF1010F09D135
:10359000206B007821680873206B401C2063E08E4C
:1035A000401EE08634E02068806800F002000228B7
:1035B00010D1E08E70B1029801280BD1206B0078F9
:1035C00021680873206B401C2063E08E401EE0865B
:1035D000002002902068806800F0010068B1E08F50
:1035E00058B12068C068A16B0870A06B401CA06334
:1035F000E08F401EE08701200290FEF723FEC01BF3
:10360000B04201D3701C00B916B9032001901EE02E
:10361000E08E0028C7D1E08F0028C4D13A46314659
:10362000204602F05BFD20B1012001902020606562
:103630000DE0A06850B900BF002000902068C0686D
:10364000009020688068009000BF00BF00BF01208C
:1036500084F8510000BF002084F8500000BF01989A
:10366000FBE67047704710B50346002200BF93F891
:103670003C00012801D1022010BD012083F83C004C
:1036800000BF22F0FF00CC6840EA040222F4407040
:103690008C6840EA040222F480604C6840EA04022C
:1036A00022F400600C6840EA040222F480500C69A5
:1036B00040EA040222F400504C6940EA040222F479
:1036C0008040CC6940EA04021868426400BF0020D0
:1036D00083F83C0000BF00BFCEE7000030B50246D3
:1036E0000B4600BF92F83C00012801D1022030BDFA
:1036F000012082F83C0000BF022082F83D001068E3
:1037000044681068816824F07004186804431068E5
:103710004460184D1068A8421BD01068B0F1804F6B
:1037200017D0154D1068A84213D0144D1068A84248
:103730000FD0134D1068A8420BD0124D1068A8424C
:1037400007D0114D1068A84203D0104D1068A84250
:1037500005D121F080015868014310688160012083
:1037600082F83D0000BF002082F83C0000BF00BF8F
:10377000BDE70000000001400004004000080040D8
:10378000000C0040000401400040014000180040CF
:1037900010B504460CB9012010BD94F83D0028B9BD
:1037A000002084F83C00204600F026F8022084F82F
:1037B0003D00211D206802F0F5FD012084F846003F
:1037C00000BF84F83E0001213F20015540200155F3
:1037D0004120015500BF00BF012084F84200432072
:1037E0000155442001554520015500BF012084F8B2
:1037F0003D000020D0E7000038B504461C49206891
:10380000884218D100BF002000901A48006840F09C
:103810000200184908600846006800F002000090A5
:1038200000BF00BF002206211D20FFF799F81D20D0
:10383000FFF786F81BE010492068884217D100BFC7
:10384000002000900B48006840F0800009490860A3
:103850000846006800F08000009000BF00BF002212
:1038600005212C20FFF77CF82C20FFF769F838BDE4
:103870000004004040380240001C0040014691F81E
:103880003D00012801D001207047022081F83D0051
:103890000868C06840F001000B68D8601A4B0868DF
:1038A00098421BD00868B0F1804F17D0174B0868BA
:1038B000984213D0164B086898420FD0154B0868F1
:1038C00098420BD0144B0868984207D0134B0868F5
:1038D000984203D0124B086898420CD1086880685F
:1038E00000F00702062A0CD00868006840F00100CA
:1038F0000B68186005E00868006840F001000B687C
:1039000018600020C0E700000000014000040040F3
:1039100000080040000C004000040140004001404D
:103920000018004001460868C06820F001000A68DD
:10393000D06000BF0868006A41F21112104050B90F
:103940000868006A9210104028B90868006820F0E2
:1039500001000A68106000BF012081F83D000020CE
:1039600070472DE9F04104460D46002700BF94F84A
:103970003C00012802D10220BDE8F081012084F83A
:103980003C0000BF022084F83D002068866826F0D5
:10399000770626F47F46206886602868502833D052
:1039A0000CDC202850D004DC00284BD0102851D14A
:1039B00049E0302849D040284CD139E060282DD04A
:1039C000702807D0B0F5805F03D0B0F5005F41D11B
:1039D0000DE041E0D5E902136A68206802F05FFD5E
:1039E0002068866846F077062068866034E0D5E96E
:1039F00002136A68206802F052FD2068806840F473
:103A000080402168886027E0EA686968206802F0E1
:103A100037FE5021206802F04DFD1DE0EA6869681C
:103A2000206802F040FE6021206802F043FD13E0B0
:103A3000EA686968206802F023FE4021206802F0ED
:103A400039FD09E000BF00BF00BF2968206802F00F
:103A500031FD01E0012700BF00BF012084F83D00D7
:103A600000BF002084F83C0000BF384684E72DE901
:103A7000F04104460D4614B90120BDE8F08194F8E8
:103A80003D0028B9002084F83C00204600F054F89E
:103A9000022084F83D002068806844F207018843D2
:103AA00021688860211D206802F07CFC2068D0F825
:103AB0000880206886692068076A286840EA080844
:103AC00040F203308643A969A86840EA0120064312
:103AD00040F60C4086434FF2F0008643E969E868FF
:103AE00040EA0120064328690001296A40EA0130C2
:103AF000064327F0220727F088076969686840EACB
:103B0000011007432068C0F808802068866120689B
:103B10000762012084F8460084F83E0001213F201E
:103B20000155012084F8420043200155012084F80A
:103B30003D000020A1E7000010B586B00446142126
:103B400001A8FCF707FC2068B0F1804F37D100BF17
:103B5000002000901B48006840F0010019490860EF
:103B60000846006800F00100009000BF00BF00BFE1
:103B70000020009013481038006840F001001149FF
:103B8000103908600846006800F00100009000BF8E
:103B900000BF03200190022002900120039000202A
:103BA00004900120059001A90748FEF755FA00226C
:103BB00005211C20FEF7D4FE1C20FEF7C1FE06B036
:103BC00010BD00004038024000000240704710B5B0
:103BD000044620680069C0F34000D8B12068C0687E
:103BE000C0F34000B0B16FF002002168086101200D
:103BF00020772068806900F0030018B12046FFF7A5
:103C0000E5FF05E0204600F0DFF8204600F0CEF9A1
:103C10000020207720680069C0F38000D8B12068B8
:103C2000C068C0F38000B0B16FF004002168086183
:103C3000022020772068806900F4407018B1204687
:103C4000FFF7C4FF05E0204600F0BEF8204600F074
:103C5000ADF90020207720680069C0F3C000D8B11A
:103C60002068C068C0F3C000B0B16FF008002168E0
:103C70000861042020772068C06900F0030018B1B3
:103C80002046FFF7A3FF05E0204600F09DF8204600
:103C900000F08CF90020207720680069C0F3001044
:103CA000D8B12068C068C0F30010B0B16FF0100048
:103CB00021680861082020772068C06900F44070FE
:103CC00018B12046FFF782FF05E0204600F07CF89F
:103CD000204600F06BF9002020772068006900F092
:103CE000010058B12068C06800F0010030B16FF0E9
:103CF000010021680861204600F088FA2068006908
:103D0000C0F3C01058B12068C068C0F3C01030B113
:103D10006FF08000216808612046FFF7A2FC206850
:103D20000069C0F3801058B12068C068C0F38010EB
:103D300030B16FF0400021680861204600F0B4FA0D
:103D400020680069C0F3401058B12068C068C0F313
:103D5000401030B16FF02000216808612046FFF765
:103D600081FC10BD10B586B00446142101A8FCF7F3
:103D7000F1FA1249206888421DD100BF002000904E
:103D80000F48006840F004000D49086008460068CC
:103D900000F00400009000BF00BF4020019002200E
:103DA000029000200390022004900320059001A9B6
:103DB0000448FEF751F906B010BD000000040140B0
:103DC000303802400008024070472DE9F0410446B7
:103DD0000D461646002700BF94F83C00012802D18A
:103DE0000220BDE8F081012084F83C0000BF36B11C
:103DF000042E1BD0082E31D00C2E5ED145E0294672
:103E0000206802F061FB2068806940F008002168AA
:103E100088612068806920F004002168886120683A
:103E20008069296908432168886148E0294620683B
:103E300002F082FB2068806940F40060216888619C
:103E40002068806920F4806021688861206880692A
:103E5000296940EA01202168886130E0294620680C
:103E600002F0A8FB2068C06940F008002168C86122
:103E70002068C06920F004002168C8612068C0691A
:103E8000296908432168C86119E02946206802F0C1
:103E9000CDFB2068C06940F400602168C8612068DB
:103EA000C06920F480602168C8612068C069296900
:103EB00040EA01202168C86101E0012700BF00BF7E
:103EC00000BF002084F83C0000BF384689E710B5E9
:103ED00004460CB9012010BD94F83D0028B900201B
:103EE00084F83C00204600F025F8022084F83D00CC
:103EF000211D206802F056FA012084F8460000BF18
:103F000084F83E0001213F20015540200155412009
:103F1000015500BF00BF012084F842004320015535
:103F2000442001554520015500BF012084F83D0083
:103F30000020D0E738B504461A49206888422FD1BE
:103F400000BF002000901848006840F002001649A9
:103F500008600846006800F00200009000BF00BF43
:103F6000002205212B20FEF7FBFC2B20FEF7E8FCAE
:103F7000002205212C20FEF7F3FC2C20FEF7E0FCAC
:103F8000002205212D20FEF7EBFC2D20FEF7D8FCAA
:103F9000002205212E20FEF7E3FC2E20FEF7D0FCA8
:103FA00038BD000000040140443802407047000062
:103FB000F0B504460D46002615B994F83E000BE016
:103FC000042D02D13F20005D06E0082D02D14020E3
:103FD000005D01E04120005D012801D00120F0BD1D
:103FE0001DB9022084F83E000EE0042D03D1022109
:103FF0003F20015508E0082D03D102214020015542
:1040000002E002214120015535B1042D0BD0082DCD
:1040100010D00C2D1CD114E02068C06840F00200C4
:104020002168C86016E02068C06840F0040021687C
:10403000C8600FE02068C06840F008002168C860D0
:1040400008E02068C06840F010002168C86001E006
:10405000012600BF00BFEEBB01222946206802F006
:104060000DFA24492068884203D0234920688842F9
:1040700001D1012000E0002028B12068406C40F40C
:104080000040216848641B49206888421BD0206892
:10409000B0F1804F17D019492068884213D01849D1
:1040A000206888420FD01749206888420BD01249F7
:1040B0002068884207D014492068884203D01349F9
:1040C000206888420ED12068806800F00707062F1C
:1040D0000ED000E00CE02068006840F0010021688C
:1040E000086005E02068006840F001002168086071
:1040F000304674E700000140000401400004004025
:1041000000080040000C0040004001400018004042
:1041100070B504460D46002635B1042D0BD0082D90
:1041200010D00C2D1CD114E02068C06820F00200D3
:104130002168C86016E02068C06820F0040021688B
:10414000C8600FE02068C06820F008002168C860DF
:1041500008E02068C06820F010002168C86001E015
:10416000012600BF00BF002E4AD100222946206848
:1041700002F084F923492068884203D0224920684C
:10418000884201D1012000E0002090B100BF2068EA
:10419000006A41F21111084050B92068006A891084
:1041A000084028B92068406C20F400402168486429
:1041B00000BF00BF2068006A41F21111084050B9E9
:1041C0002068006A8910084028B92068006820F03B
:1041D00001002168086000BF1DB9012084F83E007D
:1041E0000EE0042D03D101213F20015508E0082DE8
:1041F00003D101214020015502E001214120015558
:10420000304670BD000001400004014010B5044676
:104210001D492068884201D1FEF7EEFA1B4920684B
:10422000884224D101201A49087080211948FDF7DD
:10423000F1FF58B980211848FDF7ECFF012805D19E
:1042400016480068401C1549086010E0802111489C
:10425000FDF7E0FF01280AD180210F48FDF7DAFFC2
:10426000012804D10D480068401E0C4908600C4923
:104270002068884207D10B48FFF754FB0022042135
:104280000548FDF7D9FF10BD0000014000040140C2
:1042900044000020000802400000024050000020BE
:1042A000001C0040740300207047704770470000F6
:1042B0002DE9F84F0446206805682068C668206824
:1042C00047694FF00009CA4605F00F09B9F1000F20
:1042D0000AD105F0200038B106F0200020B12046B8
:1042E00002F045FABDE8F88FB9F1000F7CD007F075
:1042F000010018B906F49070002875D005F001008F
:1043000030B106F4807018B1206C40F001002064D8
:1043100005F0040030B107F0010018B1206C40F046
:104320000200206405F0020030B107F0010018B16E
:10433000206C40F00400206405F0080048B106F04D
:10434000200010B907F0010018B1206C40F00800FF
:104350002064206C002846D005F0200028B106F02B
:10436000200010B1204602F002FA20684069C0F334
:10437000801A206C00F0080010B9BAF1000F2DD09F
:10438000204602F0AEF92068406900F04000402865
:1043900020D100BF00BF2168143151E8001F21F077
:1043A00040002168143141E80002002AF3D100BF27
:1043B000A06B50B17548A16B0865A06BFDF748FC78
:1043C00088B1A06B016D88470DE02046FFF76EFFB6
:1043D00009E009E02046FFF769FF04E02046FFF707
:1043E00065FF002020647DE7206B012876D105F071
:1043F0001000002872D006F010000028FAD000BF8C
:1044000000200090206800680090206840680090BC
:1044100000BF00BF2068406900F0400040285ED126
:10442000A06B006840681FFA80F8B8F1000F54D004
:10443000A08D404551DDA4F82E80A06BC069B0F579
:10444000807F43D000BF00BF21680C3151E8001FBE
:1044500021F4807021680C3141E80002002AF3D178
:1044600000BF00BF00BF2168143151E8001F21F0D8
:1044700001002168143141E80002002AF3D100BF95
:1044800000BF00BF2168143151E8001F21F0400037
:104490002168143141E80002002AF3D100BF202036
:1044A00084F83E000020206300BF00BF21680C316B
:1044B00051E8001F21F0100021680C3141E8000292
:1044C000002AF3D100BFA06BFDF76CFBA08DE28D3D
:1044D000801A81B22046FFF7E8FE03E740E0A08D96
:1044E000E18D401A1FFA80F8E08DC0B3B8F1000FDB
:1044F00035D000BF00BF21680C3151E8001F21F406
:10450000907021680C3141E80002002AF3D100BF0D
:1045100000BF00BF2168143151E8001F21F00100E5
:104520002168143141E80002002AF3D100BF2020A5
:1045300084F83E000020206300BF00BF21680C31DA
:1045400051E8001F21F0100021680C3141E8000201
:10455000002AF3D100BF41462046FFF7A6FEC1E680
:1045600005F0800030B106F0800018B1204602F05E
:10457000B6FAB7E605F0400030B106F0400018B1D9
:10458000204602F0E4F8ADE600BFABE6CF660008D7
:1045900010B504460CB9012010BDA06900B100E0BF
:1045A00000BF94F83D0028B9002084F83C00204664
:1045B00000F028F8242084F83D002068C06820F42A
:1045C00000502168C860204602F04EF9206800695A
:1045D00020F49040216808612068406920F02A009A
:1045E000216848612068C06840F400502168C860B4
:1045F00000202064202084F83D0084F83E00002044
:10460000CAE7000010B586B00446142101A8FBF7E4
:10461000A1FE5E492068884276D100BF002000904C
:104620005B48006840F0100059490860084600687F
:1046300000F01000009000BF00BF00BF00200090FD
:1046400053481438006840F001005149143908609B
:104650000846006800F00100009000BF00BF4FF462
:10466000C06001900220029000200390032004907B
:104670000720059001A94748FDF7EEFC4648474949
:1046800008604FF000604860002144488160C160CC
:104690004FF480610161002141618161C16101626A
:1046A0004162FDF70DFC08B1FDF738FA00BF3B4849
:1046B000A063846300BF38487830394908604FF000
:1046C000006048604021364881600021C1604FF49D
:1046D00080610161002141618161C16101624162CA
:1046E000FDF7EEFB08B1FDF719FA00BF2C48606337
:1046F000846300BF002205212520FEF731F9252023
:10470000FEF71EF93FE0FFE72649206888423AD1CC
:1047100000BF002000901E48001F006840F4802069
:104720001B49091F08600846006800F480200090BB
:1047300000BF00BF00BF002000901548143800687B
:1047400040F004001249143908600846006800F07F
:104750000400009000BF00BF4FF4406001900220B1
:10476000029000200390032004900720059001A9E7
:104770000D48FDF771FC002205212720FEF7F0F817
:104780002720FEF7DDF806B010BD00000010014044
:1047900044380240000002404064024044040020CB
:1047A000A4040020004800400008024070B5044600
:1047B0000D46164694F83E00202816D105B10EB9D4
:1047C000012070BD00BF94F83C00012801D10220F7
:1047D000F7E7012084F83C0000BF00202063324648
:1047E0002946204602F056F9EBE70220E9E70000EF
:1047F00010B5044606492068884208D10549087862
:1048000004F074FE012203490348FFF7CFFF10BDF7
:104810000044004061010020000400202DE9F84F11
:1048200004460E46174699464FF0000A94F83D009C
:1048300020285AD106B117B90120BDE8F88F00BF72
:1048400094F83C00012801D10220F6E7012084F809
:104850003C0000BF00202064212084F83D00FDF7CB
:10486000F1FC8246A784E784A068B0F5805F04D19C
:10487000206910B90025B04602E035464FF0000827
:1048800000BF002084F83C0000BF1BE0534600221C
:1048900080212046CDF8009002F051F908B10320A4
:1048A000CBE745B9B8F80000C0F3080021684860BC
:1048B00008F1020803E02878216848606D1CE08C4C
:1048C000401EE084E08C0028E0D1534600224021C5
:1048D0002046CDF8009002F032F908B10320ACE791
:1048E000202084F83D000020A7E70220A5E77047BC
:1048F00000BFFEE710B50248FDF7ACFC10BD00009C
:10490000E401002010B50248FDF70EFD10BD0000C7
:10491000E4010020C16AB1F52A0F02D10121C16270
:1049200005E0C16AB1F12A4F01D10821C162704787
:10493000F8B5054600200090AC6B94F83D6039480E
:1049400000681921B0FBF1F04FF47A71B0FBF1F07F
:10495000C0EBC00000EB8000009000BF009820B9C1
:10496000206C40F02000206409E00098401E009078
:104970002068006800F40070B0F5007FEED000BF42
:10498000606B10B10020616BC863A06B10B1002098
:10499000A16BC8632068006820F48060216808600B
:1049A00000206085606B10B10020616B0865A06B12
:1049B00010B10020A16B08652068006820F001009C
:1049C0002168086094F83D0060280AD1202084F80E
:1049D0003D00002084F83E0020642046FDF738FCAE
:1049E0001EE006F02800282811D12068006840F059
:1049F0000100216808602068006840F48060216838
:104A0000086000202063282084F83D0005E0202075
:104A100084F83D00002084F83E002046FDF771FD3B
:104A2000F8BD00009C0000202DE9F041044694F8F8
:104A30003D6094F83E70102F01D0402F07D1222EF8
:104A400005D12068006820F400602168086006F045
:104A50002800282805D100202063282084F83D0064
:104A600010E02068406800F40060B0F5006F07D0E7
:104A7000602E05D0202084F83D00002084F83E0000
:104A8000002020632068406800F40060B0F5006FEB
:104A900040D12068406820F4006021684860606B65
:104AA00090F83500012814D04848616B0865606BA8
:104AB000FDF7CEF800285BD02068006820F00100E8
:104AC00021680860202084F83D00606B016D8847F4
:104AD0004EE03E48A16B0865A06BFDF7B9F80028D1
:104AE00046D020684069C0F3801030B1206800696A
:104AF000616A0870606A401C60622068006820F08B
:104B0000010021680860202084F83D00A06B016D41
:104B100088472DE094F83D0060281AD1202084F8C1
:104B20003D000020206420684069C0F3801030B14F
:104B300020680069616A0870606A401C60622068D1
:104B4000006820F00100216808602046FDF780FB26
:104B50000EE020684069C0F3801030B12068006921
:104B6000616A0870606A401C60622046FDF7C9FCFB
:104B7000256C05F0010058B905F00200022807D0A5
:104B800005F00400042803D005F00800082805D12A
:104B90002068406820F4E0602168486094F83D6037
:104BA000206C00F0040004280ED1282E0CD10848F7
:104BB000E06200202063202084F83D00002084F87B
:104BC0003E002046FDF786FDBDE8F0813149000832
:104BD0000000FFFF70B50446E56A608D042810D11F
:104BE0002068406820F4806021684860206800697F
:104BF000616A0870606A401C6062608D401E60855A
:104C00007AE0608D03281AD12068406820F4806023
:104C100021684860042D07D0022D05D02068006867
:104C200020F480602168086020680069616A08706B
:104C3000606A401C6062608D401E60855CE0608D33
:104C400002284FD1012D01D0102D06D12068006817
:104C500020F480602168086012E0042D01D0022D4C
:104C600006D12068006840F480602168086007E091
:104C7000102D05D02068006840F40070216808609D
:104C800020680069616A0870606A401C6062608D1B
:104C9000401E608520680069616A0870606A401C77
:104CA0006062608D401E60852068406820F440701E
:104CB00021684860202084F83D0094F83E00402898
:104CC00007D1002084F83E0020632046FDF705FD53
:104CD00012E0002084F83E00122020632046FDF7F9
:104CE000FAFC09E020680069616A0870606A401C8B
:104CF0006062608D401E608570BD70B5044694F89A
:104D00003D00222870D1658D032D13D920680069DC
:104D1000616A0870606A401C6062608D401E608538
:104D2000608D03285FD12068406820F4806021688E
:104D3000486058E0E06A02284FD0012D01D0002DD4
:104D40004BD1204600F0B2FC68BB2068006820F41C
:104D50008060216808602068406820F4E060216875
:104D6000486020680069616A0870606A401C60627F
:104D7000608D401E6085202084F83D0094F83E0040
:104D8000402807D1002084F83E0020632046FDF72C
:104D9000A4FC28E0002084F83E0012202063204676
:104DA000FDF799FC1FE02068406820F4E06021686E
:104DB000486020680069616A0870606A401C60622F
:104DC000608D401E6085202084F83D00002084F81E
:104DD0003E002046FDF795FB05E02068406820F482
:104DE00080602168486000BF70BD70B50446E56A08
:104DF00094F83D00212847D1608D50B1606A007859
:104E000021680861606A401C6062608D401E608598
:104E10003AE0082D16D0202D14D015F5803F11D082
:104E20002068406820F4E060216848601120206319
:104E3000002084F83E00202084F83D002046FDF745
:104E40004BFC21E02068406820F4E0602168486065
:104E50002068006840F4007021680860002020632A
:104E6000202084F83D0094F83E00402806D1002020
:104E700084F83E002046FDF731FC05E0002084F870
:104E80003E002046FDF728FC70BD2DE9F0410446A8
:104E900094F83D5094F83E70E66A208DB0BB212D09
:104EA0003CD1082E16D0202E14D016F5803F11D0FC
:104EB0002068406820F4E060216848601120206389
:104EC000002084F83E00202084F83D002046FDF7B5
:104ED00003FC44E02068406820F4E06021684860FA
:104EE0002068006840F4007021680860002020639A
:104EF000202084F83D0094F83E00402807D100208F
:104F000084F83E002046FDF7E9FB28E006E000209B
:104F100084F83E002046FDF7DFFB20E0212D03D082
:104F2000402F1CD1222D1AD1608D30B920684068E5
:104F300020F480602168486011E094F83E00402829
:104F400003D1204600F0A5F909E0606A00782168E5
:104F50000861606A401C6062608D401E6085BDE82B
:104F6000F081416CC9B202681161416B11B1416BB2
:104F7000C96B21B9816B41B1816BC96B29B10168E2
:104F8000496841F4006102685160704738B590F893
:104F90003E20C16A036B90F83D40222C73D1046D12
:104FA00064B9402A0AD100BF0024009404686469EF
:104FB00000940468A469009400BF1AE1046DC4B9A8
:104FC0000469B4F5404F14D100BF00240094046874
:104FD000646900940468A469009400BF00BF046879
:104FE000246844F4807405682C60046D641C0465B6
:104FF000FFE0448D8CB900BF00240094046864690C
:1050000000940468A469009400BF00BF0468246889
:1050100044F4007405682C60DDE0448D012C72D1ED
:1050200011F5803F30D10468246824F48064056859
:105030002C600468646804F40064B4F5006F10D157
:105040000468246824F4806405682C6000BF002490
:1050500000940468646900940468A469009400BF23
:10506000B9E000BF002400940468646900940468F7
:10507000A469009400BF00BF0468246844F400746D
:1050800005682C60A7E0A9E0082923D0202921D0B9
:10509000122B01D101291DD104290AD0022908D0DF
:1050A000102906D00468246824F4806405682C6004
:1050B00005E00468246844F4806405682C6000BF3F
:1050C000002400940468646900940468A46900944E
:1050D00000BF80E00468246824F4806405682C60C4
:1050E00000BF002400940468646900940468A46903
:1050F000009400BF00BF0468246844F4007405688D
:105100002C6068E0FFE7448D022C3BD1042910D0CD
:1051100002290ED010290CD00468246824F480647D
:1051200005682C600468246844F4006405682C60F9
:1051300005E00468246844F4806405682C60046811
:10514000646804F40064B4F5006F10D111F5803F79
:1051500007D0012905D0082903D0102901D0202922
:1051600005D10468646844F4805405686C6000BF2D
:10517000002400940468646900940468A46900949D
:1051800000BF28E00468246844F4806405682C604B
:105190000468646804F40064B4F5006F10D111F57C
:1051A000803F07D0012905D0082903D0102901D05C
:1051B000202905D10468646844F4805405686C6053
:1051C00000BF002400940468646900940468A46922
:1051D000009400BF00BF002404650AE000BF002463
:1051E00000940468646900940468A469009400BF92
:1051F00000BF38BD90F83E1040290ED1016D29B98D
:10520000416C01F0FE010268116141E0416CC9B2DC
:1052100041F00101026811613AE00169B1F5804F86
:1052200020D190F83D10212905D1416C01F0FE01FB
:105230000268116105E0416CC9B241F001010268E8
:105240001161416B11B1416BC96B21B9816BF9B12E
:10525000816BC96BE1B10168496841F40061026882
:10526000516015E0016D41B9416C01F44071F022CB
:1052700042EAE111026811610AE0016D012907D1DA
:10528000416C01F44071F12242EAE11102681161BE
:10529000704770B5044694F83D50206D98B9E06CA5
:1052A000012807D1A06CC0B221680861206D801C64
:1052B00020654CE0A06CC0F3072021680861206DD8
:1052C000401C206543E0206D012807D1A06CC0B2CE
:1052D00021680861206D401C206538E0206D02289F
:1052E00035D1222D09D12068006840F480702168F2
:1052F0000860206D401C206529E0608D60B1212D83
:105300000AD1606A007821680861606A401C6062A6
:10531000608D401E60851AE0608DC0B9212D16D1C8
:105320002068406820F4E0602168486020680068D8
:1053300040F400702168086000202063202084F879
:105340003D00002084F83E002046FDF7C7F970BDFF
:10535000418D49B101680969426A1170416A491C6D
:105360004162418D491E4185704770B5044694F8ED
:105370003D50608DD8B120680069616A0870606A2C
:10538000401C6062608D401E6085608D78B92A2D5A
:105390000DD12068406820F4806021684860222098
:1053A0002063282084F83D002046FDF7EDF970BD0C
:1053B000418D49B1416A097802681161416A491C0D
:1053C0004162418D491E4185704770B5044694F88D
:1053D0003D50608DD8B1606A007821680861606ACC
:1053E000401C6062608D401E6085608D78B9292DFB
:1053F0000DD12068406820F4806021684860212039
:105400002063282084F83D002046FDF7BEF970BDDA
:10541000F8B504460D46002794F83D0000F028003A
:1054200028281CD12068406820F4806021684860EA
:10543000C5F3800000B90127C5F3C01010B9A089D9
:1054400086B201E0208B86B200BF002084F83C00C9
:1054500000BF324639462046FCF7FBFE0FE000BF96
:1054600000200090206840690090206880690090CA
:1054700000BF00BF00BF002084F83C0000BFF8BDA3
:1054800070B5044694F83D50E66A082E01D0202EEF
:105490001FD1282D1DD12148E0622068406820F4EA
:1054A000E060216848606FF480602168486120688E
:1054B000006820F4806021680860002020632020BC
:1054C00084F83D00002084F83E002046FDF702F9F4
:1054D00023E0212D1DD11148E062212020632020EE
:1054E00084F83D00002084F83E002068406820F4E5
:1054F000E060216848606FF480602168486120683E
:10550000006820F48060216808602046FDF73DF9BE
:1055100003E06FF480602168486170BD0000FFFF08
:1055200038B5044694F83D502068406820F4E060A7
:105530002168486000BF002000902068406900900A
:105540002068006840F001002168086000BF00BFCB
:105550002068006820F48060216808602068406846
:1055600000F40060B0F5006F42D1222D01D02A2D49
:105570001FD1A06B006840686085608D18B1206CF9
:1055800040F0040020642068406820F40060216836
:105590004860A06BFCF770FB012829D04148A16B43
:1055A0000865A06BFCF754FB10B3A06B016D884736
:1055B0001EE0606B006840686085608D18B1206CEB
:1055C00040F0040020642068406820F400602168F6
:1055D0004860606BFCF750FB012809D03148616BD3
:1055E0000865606BFCF734FB10B1606B016D884798
:1055F000608D18B320684069C0F3800048B120680E
:105600000069616A0870606A401C6062608D401EBB
:10561000608520684069C0F3801048B12068006947
:10562000616A0870606A401C6062608D401E60851F
:10563000608D18B1206C40F004002064206C18B11B
:105640002046FFF7F1F92BE02A2D07D10020206337
:10565000282084F83D002046FDF796F894F83D0098
:1056600028280DD11048E06200202063202084F813
:105670003D00002084F83E002046FDF72BF80FE0A7
:10568000206B222801D0222D0AD100202063202067
:1056900084F83D00002084F83E002046FDF774F8B1
:1056A00038BD0000314900080000FFFF08B5014681
:1056B00000200090104800681922B0FBF2F04FF46F
:1056C0007A72B0FBF2F000EB8000009000BF00980F
:1056D000401E0090009828B9086C40F02000086433
:1056E000012008BD0868006800F40070B0F5007F74
:1056F000EDD00020F5E700009C00002000BF012055
:1057000001F066FF084800782828F8DA0648007893
:10571000401C054908700548FDF767F847F230500E
:1057200001F056FFEBE700004E0000203802002099
:1057300008B500BF002000900E48006840F48000CB
:105740000C4908600846006800F48000009000BF23
:1057500000BF002205213A20FDF702F93A20FDF7AB
:10576000EFF8002205214620FDF7FAF84620FDF764
:10577000E7F808BD3038024010B5424A0121052043
:1057800001F0BCFF40490860404A0021404802F057
:1057900045F840490860404A0021404802F03EF880
:1057A0003F4908603F4A00213F4802F037F83F492F
:1057B00008603F4A00213F4802F030F83E49086047
:1057C0003E4A00213E4802F029F83E4908603E4A20
:1057D00000213E4802F022F83D4908603D4A002180
:1057E0003D4802F01BF83D4908603D4A00213D4814
:1057F00002F014F83C4908603C4A00213C4802F0A1
:105800000DF83C4908603C4A00213C4802F006F88B
:105810003B4908603B4A00213B4801F0FFFF3B4900
:1058200008603B4A1421084601F068FF39490860C6
:10583000394A1421052001F061FF38490860384ACF
:105840000321052001F05AFF36490860042136483B
:10585000FCF7E0FC58B99FED350A354880ED000AA9
:1058600001203449087000203349086008E06FF0D7
:105870007F40314908609FED310A2D4880ED000AD4
:1058800010BD000010A400085C000020C8A30008A0
:105890002162000854000020ECA300082D620008DB
:1058A0005800002028A40008251B000860000020E4
:1058B0004CA400085D1400086400002070A40008D7
:1058C000450500086800002094A40008155F000842
:1058D0006C000020B8A40008F55F000870000020EC
:1058E000DCA40008751B00087400002000A5000857
:1058F000F16B00087800002024A50008FD56000880
:105900007C00002048A50008F55D0008800000200C
:105910006CA500088400002084A5000888000020F1
:105920009CA500088C000020000802400000000038
:105930001800002045000020500000200000FA441C
:1059400000B587B0142102A8FAF704FD00BF0020BB
:1059500001906648006840F080006449086008468D
:10596000006800F08000019000BF00BF00BF002071
:1059700001900846006840F004000860084600688E
:1059800000F00400019000BF00BF00BF00200190A4
:105990000846006840F0010008600846006800F012
:1059A0000100019000BF00BF00BF00200190084629
:1059B000006840F0020008600846006800F002003D
:1059C000019000BF00BF002240F292314848FCF72E
:1059D00033FC002240F684114648FCF72DFC0022DF
:1059E00041F207414448FCF727FC0D2002904FF498
:1059F000041003900020049002A93D48FCF72CFB02
:105A000040F20230029001200390049000200590A3
:105A100002A93748FCF720FB40F604000290012061
:105A20000390022004900020059002A93148FCF761
:105A300013FB702002904FF4041003900020049098
:105A400002A92C48FCF708FB4FF4C070029001201B
:105A5000039000200490059002A92648FCF7FCFA68
:105A6000902002900120039000200490059002A94C
:105A70001F48FCF7F1FA20200290002003900490C8
:105A800002A91B48FCF7E8FA41F20140029001200C
:105A9000039004900020059002A91748FCF7DCFA57
:105AA000062002900120039000200490059002A996
:105AB0001148FCF7D1FA002205210620FCF750FF1F
:105AC0000620FCF73DFF002205210820FCF748FFD7
:105AD0000820FCF735FF002205210920FCF740FFD4
